{
  "_format": "hh-sol-artifact-1",
  "contractName": "AadhaarRegistry",
  "sourceName": "contracts/AadhaarRegistry.sol",
  "abi": [
    {
      "inputs": [
        {
          "internalType": "address",
          "name": "_verifier",
          "type": "address"
        }
      ],
      "stateMutability": "nonpayable",
      "type": "constructor"
    },
    {
      "inputs": [
        {
          "internalType": "bytes32",
          "name": "proofHash",
          "type": "bytes32"
        }
      ],
      "name": "getWallet",
      "outputs": [
        {
          "internalType": "address",
          "name": "wallet",
          "type": "address"
        }
      ],
      "stateMutability": "view",
      "type": "function"
    },
    {
      "inputs": [
        {
          "internalType": "bytes32",
          "name": "",
          "type": "bytes32"
        }
      ],
      "name": "hashToWallet",
      "outputs": [
        {
          "internalType": "address",
          "name": "",
          "type": "address"
        }
      ],
      "stateMutability": "view",
      "type": "function"
    },
    {
      "inputs": [
        {
          "internalType": "bytes32",
          "name": "proofHash",
          "type": "bytes32"
        },
        {
          "internalType": "address",
          "name": "wallet",
          "type": "address"
        }
      ],
      "name": "registerWallet",
      "outputs": [],
      "stateMutability": "nonpayable",
      "type": "function"
    },
    {
      "inputs": [
        {
          "internalType": "address",
          "name": "_walletFactory",
          "type": "address"
        }
      ],
      "name": "setWalletFactory",
      "outputs": [],
      "stateMutability": "nonpayable",
      "type": "function"
    },
    {
      "inputs": [],
      "name": "verifier",
      "outputs": [
        {
          "internalType": "contract IVerifier",
          "name": "",
          "type": "address"
        }
      ],
      "stateMutability": "view",
      "type": "function"
    },
    {
      "inputs": [],
      "name": "verifyAndCheck",
      "outputs": [
        {
          "internalType": "bool",
          "name": "isVerified",
          "type": "bool"
        },
        {
          "internalType": "bool",
          "name": "isRegistered",
          "type": "bool"
        },
        {
          "internalType": "bytes32",
          "name": "proofHash",
          "type": "bytes32"
        }
      ],
      "stateMutability": "view",
      "type": "function"
    },
    {
      "inputs": [],
      "name": "walletFactory",
      "outputs": [
        {
          "internalType": "address",
          "name": "",
          "type": "address"
        }
      ],
      "stateMutability": "view",
      "type": "function"
    }
  ],
  "bytecode": "0x608060405234801561001057600080fd5b50604051610d71380380610d71833981810160405281019061003291906100db565b806000806101000a81548173ffffffffffffffffffffffffffffffffffffffff021916908373ffffffffffffffffffffffffffffffffffffffff16021790555050610108565b600080fd5b600073ffffffffffffffffffffffffffffffffffffffff82169050919050565b60006100a88261007d565b9050919050565b6100b88161009d565b81146100c357600080fd5b50565b6000815190506100d5816100af565b92915050565b6000602082840312156100f1576100f0610078565b5b60006100ff848285016100c6565b91505092915050565b610c5a806101176000396000f3fe608060405234801561001057600080fd5b506004361061007d5760003560e01c80637ebf879c1161005b5780637ebf879c146101005780638bb2d90b1461011c578063c5c036991461013c578063cc2056cb1461015a5761007d565b80632b7ac3f3146100825780633941c6ce146100a0578063789d392a146100d0575b600080fd5b61008a610176565b604051610097919061063f565b60405180910390f35b6100ba60048036038101906100b59190610695565b61019a565b6040516100c791906106e3565b60405180910390f35b6100ea60048036038101906100e59190610695565b6101cd565b6040516100f791906106e3565b60405180910390f35b61011a6004803603810190610115919061072a565b6102ab565b005b6101246102ef565b60405161013393929190610781565b60405180910390f35b610144610443565b60405161015191906106e3565b60405180910390f35b610174600480360381019061016f91906107b8565b610469565b005b60008054906101000a900473ffffffffffffffffffffffffffffffffffffffff1681565b60026020528060005260406000206000915054906101000a900473ffffffffffffffffffffffffffffffffffffffff1681565b60008073ffffffffffffffffffffffffffffffffffffffff166002600084815260200190815260200160002060009054906101000a900473ffffffffffffffffffffffffffffffffffffffff1673ffffffffffffffffffffffffffffffffffffffff1603610270576040517f08c379a000000000000000000000000000000000000000000000000000000000815260040161026790610855565b60405180910390fd5b6002600083815260200190815260200160002060009054906101000a900473ffffffffffffffffffffffffffffffffffffffff169050919050565b80600160006101000a81548173ffffffffffffffffffffffffffffffffffffffff021916908373ffffffffffffffffffffffffffffffffffffffff16021790555050565b60008060006102fc61054f565b610304610571565b61030c61059e565b60008054906101000a900473ffffffffffffffffffffffffffffffffffffffff1673ffffffffffffffffffffffffffffffffffffffff166311479fea848486856040518563ffffffff1660e01b815260040161036b9493929190610aac565b602060405180830381865afa158015610388573d6000803e3d6000fd5b505050506040513d601f19601f820116820180604052508101906103ac9190610b1f565b95506040516020016103bd90610ba3565b604051602081830303815290604052805190602001209350600073ffffffffffffffffffffffffffffffffffffffff166002600086815260200190815260200160002060009054906101000a900473ffffffffffffffffffffffffffffffffffffffff1673ffffffffffffffffffffffffffffffffffffffff1614159450505050909192565b600160009054906101000a900473ffffffffffffffffffffffffffffffffffffffff1681565b600160009054906101000a900473ffffffffffffffffffffffffffffffffffffffff1673ffffffffffffffffffffffffffffffffffffffff163373ffffffffffffffffffffffffffffffffffffffff16146104f9576040517f08c379a00000000000000000000000000000000000000000000000000000000081526004016104f090610c04565b60405180910390fd5b806002600084815260200190815260200160002060006101000a81548173ffffffffffffffffffffffffffffffffffffffff021916908373ffffffffffffffffffffffffffffffffffffffff1602179055505050565b6040518060400160405280600290602082028036833780820191505090505090565b60405180604001604052806002905b61058861054f565b8152602001906001900390816105805790505090565b6040518060600160405280600390602082028036833780820191505090505090565b600073ffffffffffffffffffffffffffffffffffffffff82169050919050565b6000819050919050565b60006106056106006105fb846105c0565b6105e0565b6105c0565b9050919050565b6000610617826105ea565b9050919050565b60006106298261060c565b9050919050565b6106398161061e565b82525050565b60006020820190506106546000830184610630565b92915050565b600080fd5b6000819050919050565b6106728161065f565b811461067d57600080fd5b50565b60008135905061068f81610669565b92915050565b6000602082840312156106ab576106aa61065a565b5b60006106b984828501610680565b91505092915050565b60006106cd826105c0565b9050919050565b6106dd816106c2565b82525050565b60006020820190506106f860008301846106d4565b92915050565b610707816106c2565b811461071257600080fd5b50565b600081359050610724816106fe565b92915050565b6000602082840312156107405761073f61065a565b5b600061074e84828501610715565b91505092915050565b60008115159050919050565b61076c81610757565b82525050565b61077b8161065f565b82525050565b60006060820190506107966000830186610763565b6107a36020830185610763565b6107b06040830184610772565b949350505050565b600080604083850312156107cf576107ce61065a565b5b60006107dd85828601610680565b92505060206107ee85828601610715565b9150509250929050565b600082825260208201905092915050565b7f556e726567697374657265640000000000000000000000000000000000000000600082015250565b600061083f600c836107f8565b915061084a82610809565b602082019050919050565b6000602082019050818103600083015261086e81610832565b9050919050565b600060029050919050565b600081905092915050565b6000819050919050565b6000819050919050565b6108a881610895565b82525050565b60006108ba838361089f565b60208301905092915050565b6000602082019050919050565b6108dc81610875565b6108e68184610880565b92506108f18261088b565b8060005b8381101561092257815161090987826108ae565b9650610914836108c6565b9250506001810190506108f5565b505050505050565b600060029050919050565b600081905092915050565b6000819050919050565b600081905092915050565b61095e81610875565b610968818461094a565b92506109738261088b565b8060005b838110156109a457815161098b87826108ae565b9650610996836108c6565b925050600181019050610977565b505050505050565b60006109b88383610955565b60408301905092915050565b6000602082019050919050565b6109da8161092a565b6109e48184610935565b92506109ef82610940565b8060005b83811015610a20578151610a0787826109ac565b9650610a12836109c4565b9250506001810190506109f3565b505050505050565b600060039050919050565b600081905092915050565b6000819050919050565b6000602082019050919050565b610a5e81610a28565b610a688184610a33565b9250610a7382610a3e565b8060005b83811015610aa4578151610a8b87826108ae565b9650610a9683610a48565b925050600181019050610a77565b505050505050565b600061016082019050610ac260008301876108d3565b610acf60408301866109d1565b610adc60c08301856108d3565b610aea610100830184610a55565b95945050505050565b610afc81610757565b8114610b0757600080fd5b50565b600081519050610b1981610af3565b92915050565b600060208284031215610b3557610b3461065a565b5b6000610b4384828501610b0a565b91505092915050565b600081905092915050565b7f6100000000000000000000000000000000000000000000000000000000000000600082015250565b6000610b8d600183610b4c565b9150610b9882610b57565b600182019050919050565b6000610bae82610b80565b9150819050919050565b7f556e617574686f72697a65640000000000000000000000000000000000000000600082015250565b6000610bee600c836107f8565b9150610bf982610bb8565b602082019050919050565b60006020820190508181036000830152610c1d81610be1565b905091905056fea26469706673582212209baae8c54b265f0a190c9fe1b325a740b8310654748c05717d22114e56aa9ac364736f6c634300081c0033",
  "linkReferences": {},
  "deployedLinkReferences": {}
}