{
  "_format": "hh-sol-artifact-1",
  "contractName": "MinimalWallet",
  "sourceName": "contracts/AadhaarRegistry.sol",
  "abi": [
    {
      "inputs": [
        {
          "internalType": "address",
          "name": "to",
          "type": "address"
        },
        {
          "internalType": "uint256",
          "name": "value",
          "type": "uint256"
        },
        {
          "internalType": "bytes",
          "name": "data",
          "type": "bytes"
        }
      ],
      "name": "execute",
      "outputs": [],
      "stateMutability": "nonpayable",
      "type": "function"
    }
  ],
  "bytecode": "0x6080604052348015600f57600080fd5b506103e58061001f6000396000f3fe608060405234801561001057600080fd5b506004361061002b5760003560e01c8063b61d27f614610030575b600080fd5b61004a600480360381019061004591906102b8565b61004c565b005b60008373ffffffffffffffffffffffffffffffffffffffff1683836040516100749190610398565b60006040518083038185875af1925050503d80600081146100b1576040519150601f19603f3d011682016040523d82523d6000602084013e6100b6565b606091505b50509050806100c457600080fd5b50505050565b6000604051905090565b600080fd5b600080fd5b600073ffffffffffffffffffffffffffffffffffffffff82169050919050565b6000610109826100de565b9050919050565b610119816100fe565b811461012457600080fd5b50565b60008135905061013681610110565b92915050565b6000819050919050565b61014f8161013c565b811461015a57600080fd5b50565b60008135905061016c81610146565b92915050565b600080fd5b600080fd5b6000601f19601f8301169050919050565b7f4e487b7100000000000000000000000000000000000000000000000000000000600052604160045260246000fd5b6101c58261017c565b810181811067ffffffffffffffff821117156101e4576101e361018d565b5b80604052505050565b60006101f76100ca565b905061020382826101bc565b919050565b600067ffffffffffffffff8211156102235761022261018d565b5b61022c8261017c565b9050602081019050919050565b82818337600083830152505050565b600061025b61025684610208565b6101ed565b90508281526020810184848401111561027757610276610177565b5b610282848285610239565b509392505050565b600082601f83011261029f5761029e610172565b5b81356102af848260208601610248565b91505092915050565b6000806000606084860312156102d1576102d06100d4565b5b60006102df86828701610127565b93505060206102f08682870161015d565b925050604084013567ffffffffffffffff811115610311576103106100d9565b5b61031d8682870161028a565b9150509250925092565b600081519050919050565b600081905092915050565b60005b8381101561035b578082015181840152602081019050610340565b60008484015250505050565b600061037282610327565b61037c8185610332565b935061038c81856020860161033d565b80840191505092915050565b60006103a48284610367565b91508190509291505056fea264697066735822122021a827d89039df32946488417905658e5e817f6523e1748fe93716d2dfcff9a364736f6c634300081c0033",
  "linkReferences": {},
  "deployedLinkReferences": {}
}