{
  "_format": "hh-sol-artifact-1",
  "contractName": "WalletFactory",
  "sourceName": "contracts/AadhaarRegistry.sol",
  "abi": [
    {
      "inputs": [
        {
          "internalType": "address",
          "name": "_registry",
          "type": "address"
        }
      ],
      "stateMutability": "nonpayable",
      "type": "constructor"
    },
    {
      "anonymous": false,
      "inputs": [
        {
          "indexed": true,
          "internalType": "address",
          "name": "wallet",
          "type": "address"
        },
        {
          "indexed": false,
          "internalType": "bytes32",
          "name": "proofHash",
          "type": "bytes32"
        }
      ],
      "name": "WalletCreated",
      "type": "event"
    },
    {
      "inputs": [
        {
          "internalType": "bytes32",
          "name": "proofHash",
          "type": "bytes32"
        }
      ],
      "name": "createWallet",
      "outputs": [
        {
          "internalType": "address",
          "name": "",
          "type": "address"
        }
      ],
      "stateMutability": "nonpayable",
      "type": "function"
    },
    {
      "inputs": [],
      "name": "registry",
      "outputs": [
        {
          "internalType": "contract AadhaarRegistry",
          "name": "",
          "type": "address"
        }
      ],
      "stateMutability": "view",
      "type": "function"
    },
    {
      "inputs": [],
      "name": "registryAddress",
      "outputs": [
        {
          "internalType": "address",
          "name": "",
          "type": "address"
        }
      ],
      "stateMutability": "view",
      "type": "function"
    }
  ],
  "bytecode": "0x608060405234801561001057600080fd5b506040516109493803806109498339818101604052810190610032919061011c565b806000806101000a81548173ffffffffffffffffffffffffffffffffffffffff021916908373ffffffffffffffffffffffffffffffffffffffff16021790555080600160006101000a81548173ffffffffffffffffffffffffffffffffffffffff021916908373ffffffffffffffffffffffffffffffffffffffff16021790555050610149565b600080fd5b600073ffffffffffffffffffffffffffffffffffffffff82169050919050565b60006100e9826100be565b9050919050565b6100f9816100de565b811461010457600080fd5b50565b600081519050610116816100f0565b92915050565b600060208284031215610132576101316100b9565b5b600061014084828501610107565b91505092915050565b6107f1806101586000396000f3fe608060405234801561001057600080fd5b50600436106100415760003560e01c80631d647605146100465780637b10399914610076578063ed9aab5114610094575b600080fd5b610060600480360381019061005b9190610261565b6100b2565b60405161006d91906102cf565b60405180910390f35b61007e6101cf565b60405161008b9190610349565b60405180910390f35b61009c6101f5565b6040516100a991906102cf565b60405180910390f35b600080604051806020016100c590610219565b6020820181038252601f19601f82011660405250905060008151602083016000f09050600160009054906101000a900473ffffffffffffffffffffffffffffffffffffffff1673ffffffffffffffffffffffffffffffffffffffff1663cc2056cb85836040518363ffffffff1660e01b8152600401610145929190610373565b600060405180830381600087803b15801561015f57600080fd5b505af1158015610173573d6000803e3d6000fd5b505050508073ffffffffffffffffffffffffffffffffffffffff167fc71ce9687e4bf252667e23b2b1cb9433c5357a590c7f9ff6db754257a0be60c1856040516101bd919061039c565b60405180910390a28092505050919050565b600160009054906101000a900473ffffffffffffffffffffffffffffffffffffffff1681565b60008054906101000a900473ffffffffffffffffffffffffffffffffffffffff1681565b610404806103b883390190565b600080fd5b6000819050919050565b61023e8161022b565b811461024957600080fd5b50565b60008135905061025b81610235565b92915050565b60006020828403121561027757610276610226565b5b60006102858482850161024c565b91505092915050565b600073ffffffffffffffffffffffffffffffffffffffff82169050919050565b60006102b98261028e565b9050919050565b6102c9816102ae565b82525050565b60006020820190506102e460008301846102c0565b92915050565b6000819050919050565b600061030f61030a6103058461028e565b6102ea565b61028e565b9050919050565b6000610321826102f4565b9050919050565b600061033382610316565b9050919050565b61034381610328565b82525050565b600060208201905061035e600083018461033a565b92915050565b61036d8161022b565b82525050565b60006040820190506103886000830185610364565b61039560208301846102c0565b9392505050565b60006020820190506103b16000830184610364565b9291505056fe6080604052348015600f57600080fd5b506103e58061001f6000396000f3fe608060405234801561001057600080fd5b506004361061002b5760003560e01c8063b61d27f614610030575b600080fd5b61004a600480360381019061004591906102b8565b61004c565b005b60008373ffffffffffffffffffffffffffffffffffffffff1683836040516100749190610398565b60006040518083038185875af1925050503d80600081146100b1576040519150601f19603f3d011682016040523d82523d6000602084013e6100b6565b606091505b50509050806100c457600080fd5b50505050565b6000604051905090565b600080fd5b600080fd5b600073ffffffffffffffffffffffffffffffffffffffff82169050919050565b6000610109826100de565b9050919050565b610119816100fe565b811461012457600080fd5b50565b60008135905061013681610110565b92915050565b6000819050919050565b61014f8161013c565b811461015a57600080fd5b50565b60008135905061016c81610146565b92915050565b600080fd5b600080fd5b6000601f19601f8301169050919050565b7f4e487b7100000000000000000000000000000000000000000000000000000000600052604160045260246000fd5b6101c58261017c565b810181811067ffffffffffffffff821117156101e4576101e361018d565b5b80604052505050565b60006101f76100ca565b905061020382826101bc565b919050565b600067ffffffffffffffff8211156102235761022261018d565b5b61022c8261017c565b9050602081019050919050565b82818337600083830152505050565b600061025b61025684610208565b6101ed565b90508281526020810184848401111561027757610276610177565b5b610282848285610239565b509392505050565b600082601f83011261029f5761029e610172565b5b81356102af848260208601610248565b91505092915050565b6000806000606084860312156102d1576102d06100d4565b5b60006102df86828701610127565b93505060206102f08682870161015d565b925050604084013567ffffffffffffffff811115610311576103106100d9565b5b61031d8682870161028a565b9150509250925092565b600081519050919050565b600081905092915050565b60005b8381101561035b578082015181840152602081019050610340565b60008484015250505050565b600061037282610327565b61037c8185610332565b935061038c81856020860161033d565b80840191505092915050565b60006103a48284610367565b91508190509291505056fea264697066735822122021a827d89039df32946488417905658e5e817f6523e1748fe93716d2dfcff9a364736f6c634300081c0033a2646970667358221220d61c3a344fe91b233f4e525a449a9596d98d8aa3a38cd2b601bc9cec0786cb1864736f6c634300081c0033",
  "linkReferences": {},
  "deployedLinkReferences": {}
}