{
  "_format": "hh-sol-artifact-1",
  "contractName": "MinimalWallet",
  "sourceName": "contracts/Register.sol",
  "abi": [
    {
      "inputs": [
        {
          "internalType": "address",
          "name": "govtAdd",
          "type": "address"
        },
        {
          "internalType": "uint256",
          "name": "value",
          "type": "uint256"
        }
      ],
      "name": "execute",
      "outputs": [
        {
          "internalType": "bool",
          "name": "",
          "type": "bool"
        }
      ],
      "stateMutability": "nonpayable",
      "type": "function"
    },
    {
      "stateMutability": "payable",
      "type": "receive"
    }
  ],
  "bytecode": "0x6080604052348015600f57600080fd5b5061032e8061001f6000396000f3fe6080604052600436106100225760003560e01c80633b89bb861461002e57610029565b3661002957005b600080fd5b34801561003a57600080fd5b50610055600480360381019061005091906101bf565b61006b565b604051610062919061021a565b60405180910390f35b6000814710156100b0576040517f08c379a00000000000000000000000000000000000000000000000000000000081526004016100a790610292565b60405180910390fd5b60008373ffffffffffffffffffffffffffffffffffffffff16836040516100d6906102e3565b60006040518083038185875af1925050503d8060008114610113576040519150601f19603f3d011682016040523d82523d6000602084013e610118565b606091505b505090508091505092915050565b600080fd5b600073ffffffffffffffffffffffffffffffffffffffff82169050919050565b60006101568261012b565b9050919050565b6101668161014b565b811461017157600080fd5b50565b6000813590506101838161015d565b92915050565b6000819050919050565b61019c81610189565b81146101a757600080fd5b50565b6000813590506101b981610193565b92915050565b600080604083850312156101d6576101d5610126565b5b60006101e485828601610174565b92505060206101f5858286016101aa565b9150509250929050565b60008115159050919050565b610214816101ff565b82525050565b600060208201905061022f600083018461020b565b92915050565b600082825260208201905092915050565b7f496e73756666696369656e74204163636f756e742042616c616e636500000000600082015250565b600061027c601c83610235565b915061028782610246565b602082019050919050565b600060208201905081810360008301526102ab8161026f565b9050919050565b600081905092915050565b50565b60006102cd6000836102b2565b91506102d8826102bd565b600082019050919050565b60006102ee826102c0565b915081905091905056fea2646970667358221220bb23be7eaa9cca6eb5920a53d66b02ee6bbf3e04bf234b96fd112ff1dc8fba5d64736f6c634300081c0033",
  "linkReferences": {},
  "deployedLinkReferences": {}
}