{
  "_format": "hh-sol-artifact-1",
  "contractName": "Registery",
  "sourceName": "contracts/Register.sol",
  "abi": [
    {
      "anonymous": false,
      "inputs": [
        {
          "indexed": false,
          "internalType": "string",
          "name": "user",
          "type": "string"
        },
        {
          "indexed": false,
          "internalType": "string",
          "name": "fastagID",
          "type": "string"
        }
      ],
      "name": "FastagAdded",
      "type": "event"
    },
    {
      "anonymous": false,
      "inputs": [
        {
          "indexed": false,
          "internalType": "string",
          "name": "fromUser",
          "type": "string"
        },
        {
          "indexed": false,
          "internalType": "string",
          "name": "toll",
          "type": "string"
        }
      ],
      "name": "TollAuthFail",
      "type": "event"
    },
    {
      "anonymous": false,
      "inputs": [
        {
          "indexed": false,
          "internalType": "string",
          "name": "from",
          "type": "string"
        },
        {
          "indexed": false,
          "internalType": "uint256",
          "name": "amount",
          "type": "uint256"
        },
        {
          "indexed": false,
          "internalType": "uint256",
          "name": "timestamp",
          "type": "uint256"
        },
        {
          "indexed": false,
          "internalType": "string",
          "name": "toll",
          "type": "string"
        },
        {
          "indexed": false,
          "internalType": "string",
          "name": "carNo",
          "type": "string"
        }
      ],
      "name": "TransactionLogged",
      "type": "event"
    },
    {
      "anonymous": false,
      "inputs": [
        {
          "indexed": false,
          "internalType": "string",
          "name": "user",
          "type": "string"
        }
      ],
      "name": "UserAdded",
      "type": "event"
    },
    {
      "anonymous": false,
      "inputs": [
        {
          "indexed": true,
          "internalType": "address",
          "name": "wallet",
          "type": "address"
        },
        {
          "indexed": false,
          "internalType": "string",
          "name": "proofHash",
          "type": "string"
        }
      ],
      "name": "WalletCreated",
      "type": "event"
    },
    {
      "inputs": [
        {
          "internalType": "string",
          "name": "userProofHash",
          "type": "string"
        },
        {
          "internalType": "string",
          "name": "rcNumber",
          "type": "string"
        },
        {
          "internalType": "string",
          "name": "chasisNumber",
          "type": "string"
        },
        {
          "internalType": "string",
          "name": "model",
          "type": "string"
        },
        {
          "internalType": "string",
          "name": "carNum",
          "type": "string"
        },
        {
          "internalType": "address",
          "name": "parentWallet",
          "type": "address"
        }
      ],
      "name": "addFastag",
      "outputs": [],
      "stateMutability": "nonpayable",
      "type": "function"
    },
    {
      "inputs": [
        {
          "internalType": "string",
          "name": "proofHash",
          "type": "string"
        },
        {
          "internalType": "string",
          "name": "gender",
          "type": "string"
        }
      ],
      "name": "addUser",
      "outputs": [],
      "stateMutability": "nonpayable",
      "type": "function"
    },
    {
      "inputs": [
        {
          "internalType": "string",
          "name": "proofHash",
          "type": "string"
        }
      ],
      "name": "createWallet",
      "outputs": [
        {
          "internalType": "address",
          "name": "",
          "type": "address"
        }
      ],
      "stateMutability": "nonpayable",
      "type": "function"
    },
    {
      "inputs": [
        {
          "internalType": "string",
          "name": "proofHash",
          "type": "string"
        }
      ],
      "name": "getTransactions",
      "outputs": [
        {
          "internalType": "string[]",
          "name": "",
          "type": "string[]"
        },
        {
          "internalType": "uint256[]",
          "name": "",
          "type": "uint256[]"
        },
        {
          "internalType": "uint256[]",
          "name": "",
          "type": "uint256[]"
        },
        {
          "internalType": "string[]",
          "name": "",
          "type": "string[]"
        }
      ],
      "stateMutability": "view",
      "type": "function"
    },
    {
      "inputs": [
        {
          "internalType": "string",
          "name": "proofHash",
          "type": "string"
        }
      ],
      "name": "getUser",
      "outputs": [
        {
          "internalType": "string",
          "name": "",
          "type": "string"
        },
        {
          "internalType": "string",
          "name": "",
          "type": "string"
        },
        {
          "internalType": "string[]",
          "name": "",
          "type": "string[]"
        },
        {
          "internalType": "address",
          "name": "",
          "type": "address"
        },
        {
          "components": [
            {
              "internalType": "string",
              "name": "fromUser",
              "type": "string"
            },
            {
              "internalType": "uint256",
              "name": "amount",
              "type": "uint256"
            },
            {
              "internalType": "uint256",
              "name": "timestamp",
              "type": "uint256"
            },
            {
              "internalType": "string",
              "name": "toll",
              "type": "string"
            },
            {
              "internalType": "string",
              "name": "carNo",
              "type": "string"
            }
          ],
          "internalType": "struct Transaction[]",
          "name": "",
          "type": "tuple[]"
        }
      ],
      "stateMutability": "view",
      "type": "function"
    },
    {
      "inputs": [
        {
          "internalType": "string",
          "name": "proofHash",
          "type": "string"
        }
      ],
      "name": "getUserFastags",
      "outputs": [
        {
          "components": [
            {
              "internalType": "string",
              "name": "user",
              "type": "string"
            },
            {
              "internalType": "string",
              "name": "rcNumber",
              "type": "string"
            },
            {
              "internalType": "string",
              "name": "chasisNumber",
              "type": "string"
            },
            {
              "internalType": "string",
              "name": "model",
              "type": "string"
            },
            {
              "internalType": "string",
              "name": "carNum",
              "type": "string"
            },
            {
              "internalType": "address",
              "name": "parentWallet",
              "type": "address"
            }
          ],
          "internalType": "struct Fastag[]",
          "name": "",
          "type": "tuple[]"
        }
      ],
      "stateMutability": "view",
      "type": "function"
    },
    {
      "inputs": [
        {
          "internalType": "string",
          "name": "proofHash",
          "type": "string"
        }
      ],
      "name": "getWalletBalance",
      "outputs": [
        {
          "internalType": "uint256",
          "name": "",
          "type": "uint256"
        }
      ],
      "stateMutability": "view",
      "type": "function"
    },
    {
      "inputs": [
        {
          "internalType": "string",
          "name": "fastag",
          "type": "string"
        },
        {
          "internalType": "uint256",
          "name": "amount",
          "type": "uint256"
        },
        {
          "internalType": "string",
          "name": "toll",
          "type": "string"
        }
      ],
      "name": "logTransaction",
      "outputs": [],
      "stateMutability": "nonpayable",
      "type": "function"
    },
    {
      "inputs": [
        {
          "internalType": "string",
          "name": "fastag",
          "type": "string"
        },
        {
          "internalType": "uint256",
          "name": "amount",
          "type": "uint256"
        },
        {
          "internalType": "string",
          "name": "toll",
          "type": "string"
        }
      ],
      "name": "makePayment",
      "outputs": [],
      "stateMutability": "nonpayable",
      "type": "function"
    }
  ],
  "bytecode": "0x6080604052348015600f57600080fd5b50612f088061001f6000396000f3fe608060405234801561001057600080fd5b50600436106100935760003560e01c806353b676e71161006657806353b676e71461014857806370894ee61461017b5780637404f1d21461019757806390e1e722146101c7578063fede1294146101e357610093565b8063079eaf3414610098578063263c82e1146100b45780632cd09a4d146100e457806331feb67114610114575b600080fd5b6100b260048036038101906100ad9190611adc565b6101ff565b005b6100ce60048036038101906100c99190611b54565b6102d1565b6040516100db9190611bb6565b60405180910390f35b6100fe60048036038101906100f99190611b54565b610338565b60405161010b9190611df8565b60405180910390f35b61012e60048036038101906101299190611b54565b6107ff565b60405161013f95949392919061208a565b60405180910390f35b610162600480360381019061015d9190611b54565b610d74565b60405161017294939291906121a8565b60405180910390f35b61019560048036038101906101909190612235565b6110f4565b005b6101b160048036038101906101ac9190611b54565b6113a8565b6040516101be91906122c0565b60405180910390f35b6101e160048036038101906101dc9190612235565b611436565b005b6101fd60048036038101906101f89190612307565b611746565b005b600061020a836113a8565b90506000808460405161021d919061245c565b908152602001604051809103902090508381600001908161023e919061267f565b5082816001019081610250919061267f565b50818160030160006101000a81548173ffffffffffffffffffffffffffffffffffffffff021916908373ffffffffffffffffffffffffffffffffffffffff1602179055507fdb8f9fd4bfba5ae615ae02e8b4d281b887225fd3d34a5ac7b8d78df768bb63e7846040516102c39190612751565b60405180910390a150505050565b6000806000836040516102e4919061245c565b908152602001604051809103902060030160009054906101000a900473ffffffffffffffffffffffffffffffffffffffff1690508073ffffffffffffffffffffffffffffffffffffffff1631915050919050565b60606000808360405161034b919061245c565b90815260200160405180910390206000018054610367906124a2565b9050116103a9576040517f08c379a00000000000000000000000000000000000000000000000000000000081526004016103a0906127bf565b60405180910390fd5b600080836040516103ba919061245c565b908152602001604051809103902060020180549050905060008167ffffffffffffffff8111156103ed576103ec6119b1565b5b60405190808252806020026020018201604052801561042657816020015b6104136118fa565b81526020019060019003908161040b5790505b50905060005b828110156107f4576001600086604051610446919061245c565b90815260200160405180910390206002018281548110610469576104686127df565b5b906000526020600020016040516104809190612891565b90815260200160405180910390206040518060c00160405290816000820180546104a9906124a2565b80601f01602080910402602001604051908101604052809291908181526020018280546104d5906124a2565b80156105225780601f106104f757610100808354040283529160200191610522565b820191906000526020600020905b81548152906001019060200180831161050557829003601f168201915b5050505050815260200160018201805461053b906124a2565b80601f0160208091040260200160405190810160405280929190818152602001828054610567906124a2565b80156105b45780601f10610589576101008083540402835291602001916105b4565b820191906000526020600020905b81548152906001019060200180831161059757829003601f168201915b505050505081526020016002820180546105cd906124a2565b80601f01602080910402602001604051908101604052809291908181526020018280546105f9906124a2565b80156106465780601f1061061b57610100808354040283529160200191610646565b820191906000526020600020905b81548152906001019060200180831161062957829003601f168201915b5050505050815260200160038201805461065f906124a2565b80601f016020809104026020016040519081016040528092919081815260200182805461068b906124a2565b80156106d85780601f106106ad576101008083540402835291602001916106d8565b820191906000526020600020905b8154815290600101906020018083116106bb57829003601f168201915b505050505081526020016004820180546106f1906124a2565b80601f016020809104026020016040519081016040528092919081815260200182805461071d906124a2565b801561076a5780601f1061073f5761010080835404028352916020019161076a565b820191906000526020600020905b81548152906001019060200180831161074d57829003601f168201915b505050505081526020016005820160009054906101000a900473ffffffffffffffffffffffffffffffffffffffff1673ffffffffffffffffffffffffffffffffffffffff1673ffffffffffffffffffffffffffffffffffffffff16815250508282815181106107dc576107db6127df565b5b6020026020010181905250808060010191505061042c565b508092505050919050565b60608060606000606060008087604051610819919061245c565b90815260200160405180910390209050600081600001805461083a906124a2565b90500361091c57600067ffffffffffffffff81111561085c5761085b6119b1565b5b60405190808252806020026020018201604052801561088f57816020015b606081526020019060019003908161087a5790505b5060008067ffffffffffffffff8111156108ac576108ab6119b1565b5b6040519080825280602002602001820160405280156108e557816020015b6108d2611946565b8152602001906001900390816108ca5790505b5060405180602001604052806000815250929190604051806020016040528060008152509291909550955095509550955050610d6b565b8060000181600101826002018360030160009054906101000a900473ffffffffffffffffffffffffffffffffffffffff168460040184805461095d906124a2565b80601f0160208091040260200160405190810160405280929190818152602001828054610989906124a2565b80156109d65780601f106109ab576101008083540402835291602001916109d6565b820191906000526020600020905b8154815290600101906020018083116109b957829003601f168201915b505050505094508380546109e9906124a2565b80601f0160208091040260200160405190810160405280929190818152602001828054610a15906124a2565b8015610a625780601f10610a3757610100808354040283529160200191610a62565b820191906000526020600020905b815481529060010190602001808311610a4557829003601f168201915b5050505050935082805480602002602001604051908101604052809291908181526020016000905b82821015610b36578382906000526020600020018054610aa9906124a2565b80601f0160208091040260200160405190810160405280929190818152602001828054610ad5906124a2565b8015610b225780601f10610af757610100808354040283529160200191610b22565b820191906000526020600020905b815481529060010190602001808311610b0557829003601f168201915b505050505081526020019060010190610a8a565b50505050925080805480602002602001604051908101604052809291908181526020016000905b82821015610d5957838290600052602060002090600502016040518060a0016040529081600082018054610b90906124a2565b80601f0160208091040260200160405190810160405280929190818152602001828054610bbc906124a2565b8015610c095780601f10610bde57610100808354040283529160200191610c09565b820191906000526020600020905b815481529060010190602001808311610bec57829003601f168201915b505050505081526020016001820154815260200160028201548152602001600382018054610c36906124a2565b80601f0160208091040260200160405190810160405280929190818152602001828054610c62906124a2565b8015610caf5780601f10610c8457610100808354040283529160200191610caf565b820191906000526020600020905b815481529060010190602001808311610c9257829003601f168201915b50505050508152602001600482018054610cc8906124a2565b80601f0160208091040260200160405190810160405280929190818152602001828054610cf4906124a2565b8015610d415780601f10610d1657610100808354040283529160200191610d41565b820191906000526020600020905b815481529060010190602001808311610d2457829003601f168201915b50505050508152505081526020019060010190610b5d565b50505050905095509550955095509550505b91939590929450565b60608060608060008086604051610d8b919061245c565b908152602001604051809103902060040180549050905060008167ffffffffffffffff811115610dbe57610dbd6119b1565b5b604051908082528060200260200182016040528015610df157816020015b6060815260200190600190039081610ddc5790505b50905060008267ffffffffffffffff811115610e1057610e0f6119b1565b5b604051908082528060200260200182016040528015610e3e5781602001602082028036833780820191505090505b50905060008367ffffffffffffffff811115610e5d57610e5c6119b1565b5b604051908082528060200260200182016040528015610e8b5781602001602082028036833780820191505090505b50905060008467ffffffffffffffff811115610eaa57610ea96119b1565b5b604051908082528060200260200182016040528015610edd57816020015b6060815260200190600190039081610ec85790505b50905060005b858110156110db576000808c604051610efc919061245c565b90815260200160405180910390206004018281548110610f1f57610f1e6127df565b5b90600052602060002090600502019050806000018054610f3e906124a2565b80601f0160208091040260200160405190810160405280929190818152602001828054610f6a906124a2565b8015610fb75780601f10610f8c57610100808354040283529160200191610fb7565b820191906000526020600020905b815481529060010190602001808311610f9a57829003601f168201915b5050505050868381518110610fcf57610fce6127df565b5b60200260200101819052508060010154858381518110610ff257610ff16127df565b5b6020026020010181815250508060020154848381518110611016576110156127df565b5b602002602001018181525050806003018054611031906124a2565b80601f016020809104026020016040519081016040528092919081815260200182805461105d906124a2565b80156110aa5780601f1061107f576101008083540402835291602001916110aa565b820191906000526020600020905b81548152906001019060200180831161108d57829003601f168201915b50505050508383815181106110c2576110c16127df565b5b6020026020010181905250508080600101915050610ee3565b5083838383985098509850985050505050509193509193565b60008211611137576040517f08c379a000000000000000000000000000000000000000000000000000000000815260040161112e906128f4565b60405180910390fd5b6000600184604051611149919061245c565b90815260200160405180910390206000018054611165906124a2565b80601f0160208091040260200160405190810160405280929190818152602001828054611191906124a2565b80156111de5780601f106111b3576101008083540402835291602001916111de565b820191906000526020600020905b8154815290600101906020018083116111c157829003601f168201915b5050505050905060006001856040516111f7919061245c565b90815260200160405180910390206004018054611213906124a2565b80601f016020809104026020016040519081016040528092919081815260200182805461123f906124a2565b801561128c5780601f106112615761010080835404028352916020019161128c565b820191906000526020600020905b81548152906001019060200180831161126f57829003601f168201915b5050505050905060006040518060a001604052808481526020018681526020014281526020018581526020018381525090506000836040516112ce919061245c565b9081526020016040518091039020600401819080600181540180825580915050600190039060005260206000209060050201600090919091909150600082015181600001908161131e919061267f565b5060208201518160010155604082015181600201556060820151816003019081611348919061267f565b50608082015181600401908161135e919061267f565b5050507f180a48a50ea03e9ab9b29f08a3455270c24dd92316b06bd9d7181502048ea1178386428786604051611398959493929190612914565b60405180910390a1505050505050565b600080604051806020016113bb90611975565b6020820181038252601f19601f82011660405250905060008151602083016000f090508073ffffffffffffffffffffffffffffffffffffffff167f03768bb3a703b01cc4c51e2f46596839eef3bdfc4d1dc810c789e342d2f405a7856040516114249190612751565b60405180910390a28092505050919050565b60008211611479576040517f08c379a0000000000000000000000000000000000000000000000000000000008152600401611470906128f4565b60405180910390fd5b600060018460405161148b919061245c565b908152602001604051809103902060050160009054906101000a900473ffffffffffffffffffffffffffffffffffffffff16905060006001856040516114d1919061245c565b908152602001604051809103902060000180546114ed906124a2565b80601f0160208091040260200160405190810160405280929190818152602001828054611519906124a2565b80156115665780601f1061153b57610100808354040283529160200191611566565b820191906000526020600020905b81548152906001019060200180831161154957829003601f168201915b50505050509050600073ffffffffffffffffffffffffffffffffffffffff168273ffffffffffffffffffffffffffffffffffffffff16036115dc576040517f08c379a00000000000000000000000000000000000000000000000000000000081526004016115d3906129c8565b60405180910390fd5b600015611657577f9308143bffef255eabbc4c0ae9582149d26f0fbbf7a40157bc6ad374f174bd8881846040516116149291906129e8565b60405180910390a16040517f08c379a000000000000000000000000000000000000000000000000000000000815260040161164e90612a6b565b60405180910390fd5b60007370997970c51812dc3a010c7d01b50e0d17dc79c8905060008373ffffffffffffffffffffffffffffffffffffffff16633b89bb8683886040518363ffffffff1660e01b81526004016116ad929190612a8b565b6020604051808303816000875af11580156116cc573d6000803e3d6000fd5b505050506040513d601f19601f820116820180604052508101906116f09190612aec565b905080611732576040517f08c379a000000000000000000000000000000000000000000000000000000000815260040161172990612b65565b60405180910390fd5b61173d8787876110f4565b50505050505050565b60006040518060c001604052808881526020018781526020018681526020018581526020018481526020018373ffffffffffffffffffffffffffffffffffffffff16815250905060008760405161179d919061245c565b9081526020016040518091039020600201859080600181540180825580915050600190039060005260206000200160009091909190915090816117e0919061267f565b50806001866040516117f2919061245c565b90815260200160405180910390206000820151816000019081611815919061267f565b50602082015181600101908161182b919061267f565b506040820151816002019081611841919061267f565b506060820151816003019081611857919061267f565b50608082015181600401908161186d919061267f565b5060a08201518160050160006101000a81548173ffffffffffffffffffffffffffffffffffffffff021916908373ffffffffffffffffffffffffffffffffffffffff1602179055509050507f19122baf3b2f5e4a6cc571fe386aa2ff5bc7c71f4d23d1c8e603409af42a20f587866040516118e99291906129e8565b60405180910390a150505050505050565b6040518060c001604052806060815260200160608152602001606081526020016060815260200160608152602001600073ffffffffffffffffffffffffffffffffffffffff1681525090565b6040518060a0016040528060608152602001600081526020016000815260200160608152602001606081525090565b61034d80612b8683390190565b6000604051905090565b600080fd5b600080fd5b600080fd5b600080fd5b6000601f19601f8301169050919050565b7f4e487b7100000000000000000000000000000000000000000000000000000000600052604160045260246000fd5b6119e9826119a0565b810181811067ffffffffffffffff82111715611a0857611a076119b1565b5b80604052505050565b6000611a1b611982565b9050611a2782826119e0565b919050565b600067ffffffffffffffff821115611a4757611a466119b1565b5b611a50826119a0565b9050602081019050919050565b82818337600083830152505050565b6000611a7f611a7a84611a2c565b611a11565b905082815260208101848484011115611a9b57611a9a61199b565b5b611aa6848285611a5d565b509392505050565b600082601f830112611ac357611ac2611996565b5b8135611ad3848260208601611a6c565b91505092915050565b60008060408385031215611af357611af261198c565b5b600083013567ffffffffffffffff811115611b1157611b10611991565b5b611b1d85828601611aae565b925050602083013567ffffffffffffffff811115611b3e57611b3d611991565b5b611b4a85828601611aae565b9150509250929050565b600060208284031215611b6a57611b6961198c565b5b600082013567ffffffffffffffff811115611b8857611b87611991565b5b611b9484828501611aae565b91505092915050565b6000819050919050565b611bb081611b9d565b82525050565b6000602082019050611bcb6000830184611ba7565b92915050565b600081519050919050565b600082825260208201905092915050565b6000819050602082019050919050565b600081519050919050565b600082825260208201905092915050565b60005b83811015611c37578082015181840152602081019050611c1c565b60008484015250505050565b6000611c4e82611bfd565b611c588185611c08565b9350611c68818560208601611c19565b611c71816119a0565b840191505092915050565b600073ffffffffffffffffffffffffffffffffffffffff82169050919050565b6000611ca782611c7c565b9050919050565b611cb781611c9c565b82525050565b600060c0830160008301518482036000860152611cda8282611c43565b91505060208301518482036020860152611cf48282611c43565b91505060408301518482036040860152611d0e8282611c43565b91505060608301518482036060860152611d288282611c43565b91505060808301518482036080860152611d428282611c43565b91505060a0830151611d5760a0860182611cae565b508091505092915050565b6000611d6e8383611cbd565b905092915050565b6000602082019050919050565b6000611d8e82611bd1565b611d988185611bdc565b935083602082028501611daa85611bed565b8060005b85811015611de65784840389528151611dc78582611d62565b9450611dd283611d76565b925060208a01995050600181019050611dae565b50829750879550505050505092915050565b60006020820190508181036000830152611e128184611d83565b905092915050565b600082825260208201905092915050565b6000611e3682611bfd565b611e408185611e1a565b9350611e50818560208601611c19565b611e59816119a0565b840191505092915050565b600081519050919050565b600082825260208201905092915050565b6000819050602082019050919050565b6000611e9c8383611c43565b905092915050565b6000602082019050919050565b6000611ebc82611e64565b611ec68185611e6f565b935083602082028501611ed885611e80565b8060005b85811015611f145784840389528151611ef58582611e90565b9450611f0083611ea4565b925060208a01995050600181019050611edc565b50829750879550505050505092915050565b611f2f81611c9c565b82525050565b600081519050919050565b600082825260208201905092915050565b6000819050602082019050919050565b611f6a81611b9d565b82525050565b600060a0830160008301518482036000860152611f8d8282611c43565b9150506020830151611fa26020860182611f61565b506040830151611fb56040860182611f61565b5060608301518482036060860152611fcd8282611c43565b91505060808301518482036080860152611fe78282611c43565b9150508091505092915050565b60006120008383611f70565b905092915050565b6000602082019050919050565b600061202082611f35565b61202a8185611f40565b93508360208202850161203c85611f51565b8060005b8581101561207857848403895281516120598582611ff4565b945061206483612008565b925060208a01995050600181019050612040565b50829750879550505050505092915050565b600060a08201905081810360008301526120a48188611e2b565b905081810360208301526120b88187611e2b565b905081810360408301526120cc8186611eb1565b90506120db6060830185611f26565b81810360808301526120ed8184612015565b90509695505050505050565b600081519050919050565b600082825260208201905092915050565b6000819050602082019050919050565b60006121318383611f61565b60208301905092915050565b6000602082019050919050565b6000612155826120f9565b61215f8185612104565b935061216a83612115565b8060005b8381101561219b5781516121828882612125565b975061218d8361213d565b92505060018101905061216e565b5085935050505092915050565b600060808201905081810360008301526121c28187611eb1565b905081810360208301526121d6818661214a565b905081810360408301526121ea818561214a565b905081810360608301526121fe8184611eb1565b905095945050505050565b61221281611b9d565b811461221d57600080fd5b50565b60008135905061222f81612209565b92915050565b60008060006060848603121561224e5761224d61198c565b5b600084013567ffffffffffffffff81111561226c5761226b611991565b5b61227886828701611aae565b935050602061228986828701612220565b925050604084013567ffffffffffffffff8111156122aa576122a9611991565b5b6122b686828701611aae565b9150509250925092565b60006020820190506122d56000830184611f26565b92915050565b6122e481611c9c565b81146122ef57600080fd5b50565b600081359050612301816122db565b92915050565b60008060008060008060c087890312156123245761232361198c565b5b600087013567ffffffffffffffff81111561234257612341611991565b5b61234e89828a01611aae565b965050602087013567ffffffffffffffff81111561236f5761236e611991565b5b61237b89828a01611aae565b955050604087013567ffffffffffffffff81111561239c5761239b611991565b5b6123a889828a01611aae565b945050606087013567ffffffffffffffff8111156123c9576123c8611991565b5b6123d589828a01611aae565b935050608087013567ffffffffffffffff8111156123f6576123f5611991565b5b61240289828a01611aae565b92505060a061241389828a016122f2565b9150509295509295509295565b600081905092915050565b600061243682611bfd565b6124408185612420565b9350612450818560208601611c19565b80840191505092915050565b6000612468828461242b565b915081905092915050565b7f4e487b7100000000000000000000000000000000000000000000000000000000600052602260045260246000fd5b600060028204905060018216806124ba57607f821691505b6020821081036124cd576124cc612473565b5b50919050565b60008190508160005260206000209050919050565b60006020601f8301049050919050565b600082821b905092915050565b6000600883026125357fffffffffffffffffffffffffffffffffffffffffffffffffffffffffffffffff826124f8565b61253f86836124f8565b95508019841693508086168417925050509392505050565b6000819050919050565b600061257c61257761257284611b9d565b612557565b611b9d565b9050919050565b6000819050919050565b61259683612561565b6125aa6125a282612583565b848454612505565b825550505050565b600090565b6125bf6125b2565b6125ca81848461258d565b505050565b5b818110156125ee576125e36000826125b7565b6001810190506125d0565b5050565b601f82111561263357612604816124d3565b61260d846124e8565b8101602085101561261c578190505b612630612628856124e8565b8301826125cf565b50505b505050565b600082821c905092915050565b600061265660001984600802612638565b1980831691505092915050565b600061266f8383612645565b9150826002028217905092915050565b61268882611bfd565b67ffffffffffffffff8111156126a1576126a06119b1565b5b6126ab82546124a2565b6126b68282856125f2565b600060209050601f8311600181146126e957600084156126d7578287015190505b6126e18582612663565b865550612749565b601f1984166126f7866124d3565b60005b8281101561271f578489015182556001820191506020850194506020810190506126fa565b8683101561273c5784890151612738601f891682612645565b8355505b6001600288020188555050505b505050505050565b6000602082019050818103600083015261276b8184611e2b565b905092915050565b7f496e76616c696420686173682076616c75652100000000000000000000000000600082015250565b60006127a9601383611e1a565b91506127b482612773565b602082019050919050565b600060208201905081810360008301526127d88161279c565b9050919050565b7f4e487b7100000000000000000000000000000000000000000000000000000000600052603260045260246000fd5b6000815461281b816124a2565b6128258186612420565b94506001821660008114612840576001811461285557612888565b60ff1983168652811515820286019350612888565b61285e856124d3565b60005b8381101561288057815481890152600182019150602081019050612861565b838801955050505b50505092915050565b600061289d828461280e565b915081905092915050565b7f496e76616c696420616d6f756e74000000000000000000000000000000000000600082015250565b60006128de600e83611e1a565b91506128e9826128a8565b602082019050919050565b6000602082019050818103600083015261290d816128d1565b9050919050565b600060a082019050818103600083015261292e8188611e2b565b905061293d6020830187611ba7565b61294a6040830186611ba7565b818103606083015261295c8185611e2b565b905081810360808301526129708184611e2b565b90509695505050505050565b7f496e76616c69642057616c6c6574000000000000000000000000000000000000600082015250565b60006129b2600e83611e1a565b91506129bd8261297c565b602082019050919050565b600060208201905081810360008301526129e1816129a5565b9050919050565b60006040820190508181036000830152612a028185611e2b565b90508181036020830152612a168184611e2b565b90509392505050565b7f41757468204661696c0000000000000000000000000000000000000000000000600082015250565b6000612a55600983611e1a565b9150612a6082612a1f565b602082019050919050565b60006020820190508181036000830152612a8481612a48565b9050919050565b6000604082019050612aa06000830185611f26565b612aad6020830184611ba7565b9392505050565b60008115159050919050565b612ac981612ab4565b8114612ad457600080fd5b50565b600081519050612ae681612ac0565b92915050565b600060208284031215612b0257612b0161198c565b5b6000612b1084828501612ad7565b91505092915050565b7f5061796d656e74204661696c6564210000000000000000000000000000000000600082015250565b6000612b4f600f83611e1a565b9150612b5a82612b19565b602082019050919050565b60006020820190508181036000830152612b7e81612b42565b905091905056fe6080604052348015600f57600080fd5b5061032e8061001f6000396000f3fe6080604052600436106100225760003560e01c80633b89bb861461002e57610029565b3661002957005b600080fd5b34801561003a57600080fd5b50610055600480360381019061005091906101bf565b61006b565b604051610062919061021a565b60405180910390f35b6000814710156100b0576040517f08c379a00000000000000000000000000000000000000000000000000000000081526004016100a790610292565b60405180910390fd5b60008373ffffffffffffffffffffffffffffffffffffffff16836040516100d6906102e3565b60006040518083038185875af1925050503d8060008114610113576040519150601f19603f3d011682016040523d82523d6000602084013e610118565b606091505b505090508091505092915050565b600080fd5b600073ffffffffffffffffffffffffffffffffffffffff82169050919050565b60006101568261012b565b9050919050565b6101668161014b565b811461017157600080fd5b50565b6000813590506101838161015d565b92915050565b6000819050919050565b61019c81610189565b81146101a757600080fd5b50565b6000813590506101b981610193565b92915050565b600080604083850312156101d6576101d5610126565b5b60006101e485828601610174565b92505060206101f5858286016101aa565b9150509250929050565b60008115159050919050565b610214816101ff565b82525050565b600060208201905061022f600083018461020b565b92915050565b600082825260208201905092915050565b7f496e73756666696369656e74204163636f756e742042616c616e636500000000600082015250565b600061027c601c83610235565b915061028782610246565b602082019050919050565b600060208201905081810360008301526102ab8161026f565b9050919050565b600081905092915050565b50565b60006102cd6000836102b2565b91506102d8826102bd565b600082019050919050565b60006102ee826102c0565b915081905091905056fea2646970667358221220ca46bc3fd2a16c9ff34e36e9f99a1840f998626b13a9430af64f30cf3197902564736f6c634300081c0033a2646970667358221220601f6f5f55fafe06566d8a227ff195f43dc79f5cf9a7087717dec2f959c3e7ad64736f6c634300081c0033",
  "linkReferences": {},
  "deployedLinkReferences": {}
}