{
  "_format": "hh-sol-artifact-1",
  "contractName": "Registery",
  "sourceName": "contracts/Register.sol",
  "abi": [
    {
      "inputs": [],
      "stateMutability": "nonpayable",
      "type": "constructor"
    },
    {
      "anonymous": false,
      "inputs": [
        {
          "indexed": false,
          "internalType": "string",
          "name": "user",
          "type": "string"
        },
        {
          "indexed": false,
          "internalType": "string",
          "name": "fastagID",
          "type": "string"
        }
      ],
      "name": "FastagAdded",
      "type": "event"
    },
    {
      "anonymous": false,
      "inputs": [
        {
          "indexed": false,
          "internalType": "string",
          "name": "fromUser",
          "type": "string"
        },
        {
          "indexed": false,
          "internalType": "string",
          "name": "toll",
          "type": "string"
        }
      ],
      "name": "TollAuthFail",
      "type": "event"
    },
    {
      "anonymous": false,
      "inputs": [
        {
          "indexed": false,
          "internalType": "string",
          "name": "from",
          "type": "string"
        },
        {
          "indexed": false,
          "internalType": "uint256",
          "name": "amount",
          "type": "uint256"
        },
        {
          "indexed": false,
          "internalType": "uint256",
          "name": "timestamp",
          "type": "uint256"
        },
        {
          "indexed": false,
          "internalType": "string",
          "name": "toll",
          "type": "string"
        },
        {
          "indexed": false,
          "internalType": "string",
          "name": "carNo",
          "type": "string"
        }
      ],
      "name": "TransactionLogged",
      "type": "event"
    },
    {
      "anonymous": false,
      "inputs": [
        {
          "indexed": false,
          "internalType": "string",
          "name": "user",
          "type": "string"
        }
      ],
      "name": "UserAdded",
      "type": "event"
    },
    {
      "anonymous": false,
      "inputs": [
        {
          "indexed": true,
          "internalType": "address",
          "name": "wallet",
          "type": "address"
        },
        {
          "indexed": false,
          "internalType": "string",
          "name": "proofHash",
          "type": "string"
        }
      ],
      "name": "WalletCreated",
      "type": "event"
    },
    {
      "inputs": [
        {
          "internalType": "string",
          "name": "userProofHash",
          "type": "string"
        },
        {
          "internalType": "string",
          "name": "rcNumber",
          "type": "string"
        },
        {
          "internalType": "string",
          "name": "chasisNumber",
          "type": "string"
        },
        {
          "internalType": "string",
          "name": "model",
          "type": "string"
        },
        {
          "internalType": "string",
          "name": "carNum",
          "type": "string"
        },
        {
          "internalType": "address",
          "name": "parentWallet",
          "type": "address"
        }
      ],
      "name": "addFastag",
      "outputs": [],
      "stateMutability": "nonpayable",
      "type": "function"
    },
    {
      "inputs": [
        {
          "internalType": "string",
          "name": "proofHash",
          "type": "string"
        },
        {
          "internalType": "string",
          "name": "gender",
          "type": "string"
        }
      ],
      "name": "addUser",
      "outputs": [],
      "stateMutability": "nonpayable",
      "type": "function"
    },
    {
      "inputs": [
        {
          "internalType": "string",
          "name": "proofHash",
          "type": "string"
        }
      ],
      "name": "createWallet",
      "outputs": [
        {
          "internalType": "address",
          "name": "",
          "type": "address"
        }
      ],
      "stateMutability": "nonpayable",
      "type": "function"
    },
    {
      "inputs": [
        {
          "internalType": "string",
          "name": "proofHash",
          "type": "string"
        }
      ],
      "name": "getTransactions",
      "outputs": [
        {
          "internalType": "string[]",
          "name": "",
          "type": "string[]"
        },
        {
          "internalType": "uint256[]",
          "name": "",
          "type": "uint256[]"
        },
        {
          "internalType": "uint256[]",
          "name": "",
          "type": "uint256[]"
        },
        {
          "internalType": "string[]",
          "name": "",
          "type": "string[]"
        }
      ],
      "stateMutability": "view",
      "type": "function"
    },
    {
      "inputs": [],
      "name": "getTrustedForwarder",
      "outputs": [
        {
          "internalType": "address",
          "name": "forwarder",
          "type": "address"
        }
      ],
      "stateMutability": "view",
      "type": "function"
    },
    {
      "inputs": [
        {
          "internalType": "string",
          "name": "proofHash",
          "type": "string"
        }
      ],
      "name": "getUser",
      "outputs": [
        {
          "components": [
            {
              "internalType": "string",
              "name": "proofHash",
              "type": "string"
            },
            {
              "internalType": "string",
              "name": "gender",
              "type": "string"
            },
            {
              "internalType": "string[]",
              "name": "fastags",
              "type": "string[]"
            },
            {
              "internalType": "address",
              "name": "wallet",
              "type": "address"
            },
            {
              "components": [
                {
                  "internalType": "string",
                  "name": "fromUser",
                  "type": "string"
                },
                {
                  "internalType": "uint256",
                  "name": "amount",
                  "type": "uint256"
                },
                {
                  "internalType": "uint256",
                  "name": "timestamp",
                  "type": "uint256"
                },
                {
                  "internalType": "string",
                  "name": "toll",
                  "type": "string"
                },
                {
                  "internalType": "string",
                  "name": "carNo",
                  "type": "string"
                }
              ],
              "internalType": "struct Transaction[]",
              "name": "transactions",
              "type": "tuple[]"
            }
          ],
          "internalType": "struct Users",
          "name": "",
          "type": "tuple"
        }
      ],
      "stateMutability": "view",
      "type": "function"
    },
    {
      "inputs": [
        {
          "internalType": "string",
          "name": "proofHash",
          "type": "string"
        }
      ],
      "name": "getUserFastags",
      "outputs": [
        {
          "components": [
            {
              "internalType": "string",
              "name": "user",
              "type": "string"
            },
            {
              "internalType": "string",
              "name": "rcNumber",
              "type": "string"
            },
            {
              "internalType": "string",
              "name": "chasisNumber",
              "type": "string"
            },
            {
              "internalType": "string",
              "name": "model",
              "type": "string"
            },
            {
              "internalType": "string",
              "name": "carNum",
              "type": "string"
            },
            {
              "internalType": "address",
              "name": "parentWallet",
              "type": "address"
            }
          ],
          "internalType": "struct Fastag[]",
          "name": "",
          "type": "tuple[]"
        }
      ],
      "stateMutability": "view",
      "type": "function"
    },
    {
      "inputs": [
        {
          "internalType": "string",
          "name": "proofHash",
          "type": "string"
        }
      ],
      "name": "getWalletBalance",
      "outputs": [
        {
          "internalType": "uint256",
          "name": "",
          "type": "uint256"
        }
      ],
      "stateMutability": "view",
      "type": "function"
    },
    {
      "inputs": [
        {
          "internalType": "address",
          "name": "forwarder",
          "type": "address"
        }
      ],
      "name": "isTrustedForwarder",
      "outputs": [
        {
          "internalType": "bool",
          "name": "",
          "type": "bool"
        }
      ],
      "stateMutability": "view",
      "type": "function"
    },
    {
      "inputs": [
        {
          "internalType": "string",
          "name": "fastag",
          "type": "string"
        },
        {
          "internalType": "uint256",
          "name": "amount",
          "type": "uint256"
        },
        {
          "internalType": "string",
          "name": "toll",
          "type": "string"
        }
      ],
      "name": "logTransaction",
      "outputs": [],
      "stateMutability": "nonpayable",
      "type": "function"
    },
    {
      "inputs": [
        {
          "internalType": "string",
          "name": "fastag",
          "type": "string"
        },
        {
          "internalType": "uint256",
          "name": "amount",
          "type": "uint256"
        },
        {
          "internalType": "string",
          "name": "toll",
          "type": "string"
        }
      ],
      "name": "makePayment",
      "outputs": [],
      "stateMutability": "nonpayable",
      "type": "function"
    }
  ],
  "bytecode": "0x6080604052348015600f57600080fd5b506031737a95fa73250dc53556d264522150a940d4c50238603560201b60201c565b6078565b806000806101000a81548173ffffffffffffffffffffffffffffffffffffffff021916908373ffffffffffffffffffffffffffffffffffffffff16021790555050565b6130cf806100876000396000f3fe608060405234801561001057600080fd5b50600436106100a95760003560e01c8063572b6c0511610071578063572b6c051461018d57806370894ee6146101bd5780637404f1d2146101d957806390e1e72214610209578063ce1b815f14610225578063fede129414610243576100a9565b8063079eaf34146100ae578063263c82e1146100ca5780632cd09a4d146100fa57806331feb6711461012a57806353b676e71461015a575b600080fd5b6100c860048036038101906100c39190611b88565b61025f565b005b6100e460048036038101906100df9190611c00565b610332565b6040516100f19190611c62565b60405180910390f35b610114600480360381019061010f9190611c00565b610399565b6040516101219190611ea4565b60405180910390f35b610144600480360381019061013f9190611c00565b610862565b6040516101519190612168565b60405180910390f35b610174600480360381019061016f9190611c00565b610d86565b60405161018494939291906122bf565b60405180910390f35b6101a760048036038101906101a2919061234c565b611108565b6040516101b49190612394565b60405180910390f35b6101d760048036038101906101d291906123db565b611161565b005b6101f360048036038101906101ee9190611c00565b611415565b6040516102009190612475565b60405180910390f35b610223600480360381019061021e91906123db565b6114a3565b005b61022d6117b3565b60405161023a9190612475565b60405180910390f35b61025d60048036038101906102589190612490565b6117dc565b005b600061026a83611415565b9050600060018460405161027e91906125e5565b908152602001604051809103902090508381600001908161029f9190612808565b50828160010190816102b19190612808565b50818160030160006101000a81548173ffffffffffffffffffffffffffffffffffffffff021916908373ffffffffffffffffffffffffffffffffffffffff1602179055507fdb8f9fd4bfba5ae615ae02e8b4d281b887225fd3d34a5ac7b8d78df768bb63e7846040516103249190612924565b60405180910390a150505050565b60008060018360405161034591906125e5565b908152602001604051809103902060030160009054906101000a900473ffffffffffffffffffffffffffffffffffffffff1690508073ffffffffffffffffffffffffffffffffffffffff1631915050919050565b606060006001836040516103ad91906125e5565b908152602001604051809103902060000180546103c99061262b565b90501161040b576040517f08c379a000000000000000000000000000000000000000000000000000000000815260040161040290612992565b60405180910390fd5b600060018360405161041d91906125e5565b908152602001604051809103902060020180549050905060008167ffffffffffffffff8111156104505761044f611a5d565b5b60405190808252806020026020018201604052801561048957816020015b610476611990565b81526020019060019003908161046e5790505b50905060005b828110156108575760026001866040516104a991906125e5565b908152602001604051809103902060020182815481106104cc576104cb6129b2565b5b906000526020600020016040516104e39190612a64565b90815260200160405180910390206040518060c001604052908160008201805461050c9061262b565b80601f01602080910402602001604051908101604052809291908181526020018280546105389061262b565b80156105855780601f1061055a57610100808354040283529160200191610585565b820191906000526020600020905b81548152906001019060200180831161056857829003601f168201915b5050505050815260200160018201805461059e9061262b565b80601f01602080910402602001604051908101604052809291908181526020018280546105ca9061262b565b80156106175780601f106105ec57610100808354040283529160200191610617565b820191906000526020600020905b8154815290600101906020018083116105fa57829003601f168201915b505050505081526020016002820180546106309061262b565b80601f016020809104026020016040519081016040528092919081815260200182805461065c9061262b565b80156106a95780601f1061067e576101008083540402835291602001916106a9565b820191906000526020600020905b81548152906001019060200180831161068c57829003601f168201915b505050505081526020016003820180546106c29061262b565b80601f01602080910402602001604051908101604052809291908181526020018280546106ee9061262b565b801561073b5780601f106107105761010080835404028352916020019161073b565b820191906000526020600020905b81548152906001019060200180831161071e57829003601f168201915b505050505081526020016004820180546107549061262b565b80601f01602080910402602001604051908101604052809291908181526020018280546107809061262b565b80156107cd5780601f106107a2576101008083540402835291602001916107cd565b820191906000526020600020905b8154815290600101906020018083116107b057829003601f168201915b505050505081526020016005820160009054906101000a900473ffffffffffffffffffffffffffffffffffffffff1673ffffffffffffffffffffffffffffffffffffffff1673ffffffffffffffffffffffffffffffffffffffff168152505082828151811061083f5761083e6129b2565b5b6020026020010181905250808060010191505061048f565b508092505050919050565b61086a6119dc565b600060018360405161087c91906125e5565b908152602001604051809103902060000180546108989061262b565b9050116108da576040517f08c379a00000000000000000000000000000000000000000000000000000000081526004016108d190612992565b60405180910390fd5b6001826040516108ea91906125e5565b90815260200160405180910390206040518060a00160405290816000820180546109139061262b565b80601f016020809104026020016040519081016040528092919081815260200182805461093f9061262b565b801561098c5780601f106109615761010080835404028352916020019161098c565b820191906000526020600020905b81548152906001019060200180831161096f57829003601f168201915b505050505081526020016001820180546109a59061262b565b80601f01602080910402602001604051908101604052809291908181526020018280546109d19061262b565b8015610a1e5780601f106109f357610100808354040283529160200191610a1e565b820191906000526020600020905b815481529060010190602001808311610a0157829003601f168201915b5050505050815260200160028201805480602002602001604051908101604052809291908181526020016000905b82821015610af8578382906000526020600020018054610a6b9061262b565b80601f0160208091040260200160405190810160405280929190818152602001828054610a979061262b565b8015610ae45780601f10610ab957610100808354040283529160200191610ae4565b820191906000526020600020905b815481529060010190602001808311610ac757829003601f168201915b505050505081526020019060010190610a4c565b5050505081526020016003820160009054906101000a900473ffffffffffffffffffffffffffffffffffffffff1673ffffffffffffffffffffffffffffffffffffffff1673ffffffffffffffffffffffffffffffffffffffff16815260200160048201805480602002602001604051908101604052809291908181526020016000905b82821015610d7757838290600052602060002090600502016040518060a0016040529081600082018054610bae9061262b565b80601f0160208091040260200160405190810160405280929190818152602001828054610bda9061262b565b8015610c275780601f10610bfc57610100808354040283529160200191610c27565b820191906000526020600020905b815481529060010190602001808311610c0a57829003601f168201915b505050505081526020016001820154815260200160028201548152602001600382018054610c549061262b565b80601f0160208091040260200160405190810160405280929190818152602001828054610c809061262b565b8015610ccd5780601f10610ca257610100808354040283529160200191610ccd565b820191906000526020600020905b815481529060010190602001808311610cb057829003601f168201915b50505050508152602001600482018054610ce69061262b565b80601f0160208091040260200160405190810160405280929190818152602001828054610d129061262b565b8015610d5f5780601f10610d3457610100808354040283529160200191610d5f565b820191906000526020600020905b815481529060010190602001808311610d4257829003601f168201915b50505050508152505081526020019060010190610b7b565b50505050815250509050919050565b6060806060806000600186604051610d9e91906125e5565b908152602001604051809103902060040180549050905060008167ffffffffffffffff811115610dd157610dd0611a5d565b5b604051908082528060200260200182016040528015610e0457816020015b6060815260200190600190039081610def5790505b50905060008267ffffffffffffffff811115610e2357610e22611a5d565b5b604051908082528060200260200182016040528015610e515781602001602082028036833780820191505090505b50905060008367ffffffffffffffff811115610e7057610e6f611a5d565b5b604051908082528060200260200182016040528015610e9e5781602001602082028036833780820191505090505b50905060008467ffffffffffffffff811115610ebd57610ebc611a5d565b5b604051908082528060200260200182016040528015610ef057816020015b6060815260200190600190039081610edb5790505b50905060005b858110156110ef57600060018c604051610f1091906125e5565b90815260200160405180910390206004018281548110610f3357610f326129b2565b5b90600052602060002090600502019050806000018054610f529061262b565b80601f0160208091040260200160405190810160405280929190818152602001828054610f7e9061262b565b8015610fcb5780601f10610fa057610100808354040283529160200191610fcb565b820191906000526020600020905b815481529060010190602001808311610fae57829003601f168201915b5050505050868381518110610fe357610fe26129b2565b5b60200260200101819052508060010154858381518110611006576110056129b2565b5b602002602001018181525050806002015484838151811061102a576110296129b2565b5b6020026020010181815250508060030180546110459061262b565b80601f01602080910402602001604051908101604052809291908181526020018280546110719061262b565b80156110be5780601f10611093576101008083540402835291602001916110be565b820191906000526020600020905b8154815290600101906020018083116110a157829003601f168201915b50505050508383815181106110d6576110d56129b2565b5b6020026020010181905250508080600101915050610ef6565b5083838383985098509850985050505050509193509193565b60008060009054906101000a900473ffffffffffffffffffffffffffffffffffffffff1673ffffffffffffffffffffffffffffffffffffffff168273ffffffffffffffffffffffffffffffffffffffff16149050919050565b600082116111a4576040517f08c379a000000000000000000000000000000000000000000000000000000000815260040161119b90612ac7565b60405180910390fd5b60006002846040516111b691906125e5565b908152602001604051809103902060000180546111d29061262b565b80601f01602080910402602001604051908101604052809291908181526020018280546111fe9061262b565b801561124b5780601f106112205761010080835404028352916020019161124b565b820191906000526020600020905b81548152906001019060200180831161122e57829003601f168201915b50505050509050600060028560405161126491906125e5565b908152602001604051809103902060040180546112809061262b565b80601f01602080910402602001604051908101604052809291908181526020018280546112ac9061262b565b80156112f95780601f106112ce576101008083540402835291602001916112f9565b820191906000526020600020905b8154815290600101906020018083116112dc57829003601f168201915b5050505050905060006040518060a0016040528084815260200186815260200142815260200185815260200183815250905060018360405161133b91906125e5565b9081526020016040518091039020600401819080600181540180825580915050600190039060005260206000209060050201600090919091909150600082015181600001908161138b9190612808565b50602082015181600101556040820151816002015560608201518160030190816113b59190612808565b5060808201518160040190816113cb9190612808565b5050507f180a48a50ea03e9ab9b29f08a3455270c24dd92316b06bd9d7181502048ea1178386428786604051611405959493929190612ae7565b60405180910390a1505050505050565b6000806040518060200161142890611a21565b6020820181038252601f19601f82011660405250905060008151602083016000f090508073ffffffffffffffffffffffffffffffffffffffff167f03768bb3a703b01cc4c51e2f46596839eef3bdfc4d1dc810c789e342d2f405a7856040516114919190612924565b60405180910390a28092505050919050565b600082116114e6576040517f08c379a00000000000000000000000000000000000000000000000000000000081526004016114dd90612ac7565b60405180910390fd5b60006002846040516114f891906125e5565b908152602001604051809103902060050160009054906101000a900473ffffffffffffffffffffffffffffffffffffffff169050600060028560405161153e91906125e5565b9081526020016040518091039020600001805461155a9061262b565b80601f01602080910402602001604051908101604052809291908181526020018280546115869061262b565b80156115d35780601f106115a8576101008083540402835291602001916115d3565b820191906000526020600020905b8154815290600101906020018083116115b657829003601f168201915b50505050509050600073ffffffffffffffffffffffffffffffffffffffff168273ffffffffffffffffffffffffffffffffffffffff1603611649576040517f08c379a000000000000000000000000000000000000000000000000000000000815260040161164090612b9b565b60405180910390fd5b6000156116c4577f9308143bffef255eabbc4c0ae9582149d26f0fbbf7a40157bc6ad374f174bd888184604051611681929190612bbb565b60405180910390a16040517f08c379a00000000000000000000000000000000000000000000000000000000081526004016116bb90612c3e565b60405180910390fd5b60007370997970c51812dc3a010c7d01b50e0d17dc79c8905060008373ffffffffffffffffffffffffffffffffffffffff16633b89bb8683886040518363ffffffff1660e01b815260040161171a929190612c5e565b6020604051808303816000875af1158015611739573d6000803e3d6000fd5b505050506040513d601f19601f8201168201806040525081019061175d9190612cb3565b90508061179f576040517f08c379a000000000000000000000000000000000000000000000000000000000815260040161179690612d2c565b60405180910390fd5b6117aa878787611161565b50505050505050565b60008060009054906101000a900473ffffffffffffffffffffffffffffffffffffffff16905090565b60006040518060c001604052808881526020018781526020018681526020018581526020018481526020018373ffffffffffffffffffffffffffffffffffffffff16815250905060018760405161183391906125e5565b9081526020016040518091039020600201859080600181540180825580915050600190039060005260206000200160009091909190915090816118769190612808565b508060028660405161188891906125e5565b908152602001604051809103902060008201518160000190816118ab9190612808565b5060208201518160010190816118c19190612808565b5060408201518160020190816118d79190612808565b5060608201518160030190816118ed9190612808565b5060808201518160040190816119039190612808565b5060a08201518160050160006101000a81548173ffffffffffffffffffffffffffffffffffffffff021916908373ffffffffffffffffffffffffffffffffffffffff1602179055509050507f19122baf3b2f5e4a6cc571fe386aa2ff5bc7c71f4d23d1c8e603409af42a20f5878660405161197f929190612bbb565b60405180910390a150505050505050565b6040518060c001604052806060815260200160608152602001606081526020016060815260200160608152602001600073ffffffffffffffffffffffffffffffffffffffff1681525090565b6040518060a00160405280606081526020016060815260200160608152602001600073ffffffffffffffffffffffffffffffffffffffff168152602001606081525090565b61034d80612d4d83390190565b6000604051905090565b600080fd5b600080fd5b600080fd5b600080fd5b6000601f19601f8301169050919050565b7f4e487b7100000000000000000000000000000000000000000000000000000000600052604160045260246000fd5b611a9582611a4c565b810181811067ffffffffffffffff82111715611ab457611ab3611a5d565b5b80604052505050565b6000611ac7611a2e565b9050611ad38282611a8c565b919050565b600067ffffffffffffffff821115611af357611af2611a5d565b5b611afc82611a4c565b9050602081019050919050565b82818337600083830152505050565b6000611b2b611b2684611ad8565b611abd565b905082815260208101848484011115611b4757611b46611a47565b5b611b52848285611b09565b509392505050565b600082601f830112611b6f57611b6e611a42565b5b8135611b7f848260208601611b18565b91505092915050565b60008060408385031215611b9f57611b9e611a38565b5b600083013567ffffffffffffffff811115611bbd57611bbc611a3d565b5b611bc985828601611b5a565b925050602083013567ffffffffffffffff811115611bea57611be9611a3d565b5b611bf685828601611b5a565b9150509250929050565b600060208284031215611c1657611c15611a38565b5b600082013567ffffffffffffffff811115611c3457611c33611a3d565b5b611c4084828501611b5a565b91505092915050565b6000819050919050565b611c5c81611c49565b82525050565b6000602082019050611c776000830184611c53565b92915050565b600081519050919050565b600082825260208201905092915050565b6000819050602082019050919050565b600081519050919050565b600082825260208201905092915050565b60005b83811015611ce3578082015181840152602081019050611cc8565b60008484015250505050565b6000611cfa82611ca9565b611d048185611cb4565b9350611d14818560208601611cc5565b611d1d81611a4c565b840191505092915050565b600073ffffffffffffffffffffffffffffffffffffffff82169050919050565b6000611d5382611d28565b9050919050565b611d6381611d48565b82525050565b600060c0830160008301518482036000860152611d868282611cef565b91505060208301518482036020860152611da08282611cef565b91505060408301518482036040860152611dba8282611cef565b91505060608301518482036060860152611dd48282611cef565b91505060808301518482036080860152611dee8282611cef565b91505060a0830151611e0360a0860182611d5a565b508091505092915050565b6000611e1a8383611d69565b905092915050565b6000602082019050919050565b6000611e3a82611c7d565b611e448185611c88565b935083602082028501611e5685611c99565b8060005b85811015611e925784840389528151611e738582611e0e565b9450611e7e83611e22565b925060208a01995050600181019050611e5a565b50829750879550505050505092915050565b60006020820190508181036000830152611ebe8184611e2f565b905092915050565b600081519050919050565b600082825260208201905092915050565b6000819050602082019050919050565b6000611efe8383611cef565b905092915050565b6000602082019050919050565b6000611f1e82611ec6565b611f288185611ed1565b935083602082028501611f3a85611ee2565b8060005b85811015611f765784840389528151611f578582611ef2565b9450611f6283611f06565b925060208a01995050600181019050611f3e565b50829750879550505050505092915050565b600081519050919050565b600082825260208201905092915050565b6000819050602082019050919050565b611fbd81611c49565b82525050565b600060a0830160008301518482036000860152611fe08282611cef565b9150506020830151611ff56020860182611fb4565b5060408301516120086040860182611fb4565b50606083015184820360608601526120208282611cef565b9150506080830151848203608086015261203a8282611cef565b9150508091505092915050565b60006120538383611fc3565b905092915050565b6000602082019050919050565b600061207382611f88565b61207d8185611f93565b93508360208202850161208f85611fa4565b8060005b858110156120cb57848403895281516120ac8582612047565b94506120b78361205b565b925060208a01995050600181019050612093565b50829750879550505050505092915050565b600060a08301600083015184820360008601526120fa8282611cef565b915050602083015184820360208601526121148282611cef565b9150506040830151848203604086015261212e8282611f13565b91505060608301516121436060860182611d5a565b506080830151848203608086015261215b8282612068565b9150508091505092915050565b6000602082019050818103600083015261218281846120dd565b905092915050565b600082825260208201905092915050565b60006121a682611ec6565b6121b0818561218a565b9350836020820285016121c285611ee2565b8060005b858110156121fe57848403895281516121df8582611ef2565b94506121ea83611f06565b925060208a019950506001810190506121c6565b50829750879550505050505092915050565b600081519050919050565b600082825260208201905092915050565b6000819050602082019050919050565b60006122488383611fb4565b60208301905092915050565b6000602082019050919050565b600061226c82612210565b612276818561221b565b93506122818361222c565b8060005b838110156122b2578151612299888261223c565b97506122a483612254565b925050600181019050612285565b5085935050505092915050565b600060808201905081810360008301526122d9818761219b565b905081810360208301526122ed8186612261565b905081810360408301526123018185612261565b90508181036060830152612315818461219b565b905095945050505050565b61232981611d48565b811461233457600080fd5b50565b60008135905061234681612320565b92915050565b60006020828403121561236257612361611a38565b5b600061237084828501612337565b91505092915050565b60008115159050919050565b61238e81612379565b82525050565b60006020820190506123a96000830184612385565b92915050565b6123b881611c49565b81146123c357600080fd5b50565b6000813590506123d5816123af565b92915050565b6000806000606084860312156123f4576123f3611a38565b5b600084013567ffffffffffffffff81111561241257612411611a3d565b5b61241e86828701611b5a565b935050602061242f868287016123c6565b925050604084013567ffffffffffffffff8111156124505761244f611a3d565b5b61245c86828701611b5a565b9150509250925092565b61246f81611d48565b82525050565b600060208201905061248a6000830184612466565b92915050565b60008060008060008060c087890312156124ad576124ac611a38565b5b600087013567ffffffffffffffff8111156124cb576124ca611a3d565b5b6124d789828a01611b5a565b965050602087013567ffffffffffffffff8111156124f8576124f7611a3d565b5b61250489828a01611b5a565b955050604087013567ffffffffffffffff81111561252557612524611a3d565b5b61253189828a01611b5a565b945050606087013567ffffffffffffffff81111561255257612551611a3d565b5b61255e89828a01611b5a565b935050608087013567ffffffffffffffff81111561257f5761257e611a3d565b5b61258b89828a01611b5a565b92505060a061259c89828a01612337565b9150509295509295509295565b600081905092915050565b60006125bf82611ca9565b6125c981856125a9565b93506125d9818560208601611cc5565b80840191505092915050565b60006125f182846125b4565b915081905092915050565b7f4e487b7100000000000000000000000000000000000000000000000000000000600052602260045260246000fd5b6000600282049050600182168061264357607f821691505b602082108103612656576126556125fc565b5b50919050565b60008190508160005260206000209050919050565b60006020601f8301049050919050565b600082821b905092915050565b6000600883026126be7fffffffffffffffffffffffffffffffffffffffffffffffffffffffffffffffff82612681565b6126c88683612681565b95508019841693508086168417925050509392505050565b6000819050919050565b60006127056127006126fb84611c49565b6126e0565b611c49565b9050919050565b6000819050919050565b61271f836126ea565b61273361272b8261270c565b84845461268e565b825550505050565b600090565b61274861273b565b612753818484612716565b505050565b5b818110156127775761276c600082612740565b600181019050612759565b5050565b601f8211156127bc5761278d8161265c565b61279684612671565b810160208510156127a5578190505b6127b96127b185612671565b830182612758565b50505b505050565b600082821c905092915050565b60006127df600019846008026127c1565b1980831691505092915050565b60006127f883836127ce565b9150826002028217905092915050565b61281182611ca9565b67ffffffffffffffff81111561282a57612829611a5d565b5b612834825461262b565b61283f82828561277b565b600060209050601f8311600181146128725760008415612860578287015190505b61286a85826127ec565b8655506128d2565b601f1984166128808661265c565b60005b828110156128a857848901518255600182019150602085019450602081019050612883565b868310156128c557848901516128c1601f8916826127ce565b8355505b6001600288020188555050505b505050505050565b600082825260208201905092915050565b60006128f682611ca9565b61290081856128da565b9350612910818560208601611cc5565b61291981611a4c565b840191505092915050565b6000602082019050818103600083015261293e81846128eb565b905092915050565b7f496e76616c696420686173682076616c75652100000000000000000000000000600082015250565b600061297c6013836128da565b915061298782612946565b602082019050919050565b600060208201905081810360008301526129ab8161296f565b9050919050565b7f4e487b7100000000000000000000000000000000000000000000000000000000600052603260045260246000fd5b600081546129ee8161262b565b6129f881866125a9565b94506001821660008114612a135760018114612a2857612a5b565b60ff1983168652811515820286019350612a5b565b612a318561265c565b60005b83811015612a5357815481890152600182019150602081019050612a34565b838801955050505b50505092915050565b6000612a7082846129e1565b915081905092915050565b7f496e76616c696420616d6f756e74000000000000000000000000000000000000600082015250565b6000612ab1600e836128da565b9150612abc82612a7b565b602082019050919050565b60006020820190508181036000830152612ae081612aa4565b9050919050565b600060a0820190508181036000830152612b0181886128eb565b9050612b106020830187611c53565b612b1d6040830186611c53565b8181036060830152612b2f81856128eb565b90508181036080830152612b4381846128eb565b90509695505050505050565b7f496e76616c69642057616c6c6574000000000000000000000000000000000000600082015250565b6000612b85600e836128da565b9150612b9082612b4f565b602082019050919050565b60006020820190508181036000830152612bb481612b78565b9050919050565b60006040820190508181036000830152612bd581856128eb565b90508181036020830152612be981846128eb565b90509392505050565b7f41757468204661696c0000000000000000000000000000000000000000000000600082015250565b6000612c286009836128da565b9150612c3382612bf2565b602082019050919050565b60006020820190508181036000830152612c5781612c1b565b9050919050565b6000604082019050612c736000830185612466565b612c806020830184611c53565b9392505050565b612c9081612379565b8114612c9b57600080fd5b50565b600081519050612cad81612c87565b92915050565b600060208284031215612cc957612cc8611a38565b5b6000612cd784828501612c9e565b91505092915050565b7f5061796d656e74204661696c6564210000000000000000000000000000000000600082015250565b6000612d16600f836128da565b9150612d2182612ce0565b602082019050919050565b60006020820190508181036000830152612d4581612d09565b905091905056fe6080604052348015600f57600080fd5b5061032e8061001f6000396000f3fe6080604052600436106100225760003560e01c80633b89bb861461002e57610029565b3661002957005b600080fd5b34801561003a57600080fd5b50610055600480360381019061005091906101bf565b61006b565b604051610062919061021a565b60405180910390f35b6000814710156100b0576040517f08c379a00000000000000000000000000000000000000000000000000000000081526004016100a790610292565b60405180910390fd5b60008373ffffffffffffffffffffffffffffffffffffffff16836040516100d6906102e3565b60006040518083038185875af1925050503d8060008114610113576040519150601f19603f3d011682016040523d82523d6000602084013e610118565b606091505b505090508091505092915050565b600080fd5b600073ffffffffffffffffffffffffffffffffffffffff82169050919050565b60006101568261012b565b9050919050565b6101668161014b565b811461017157600080fd5b50565b6000813590506101838161015d565b92915050565b6000819050919050565b61019c81610189565b81146101a757600080fd5b50565b6000813590506101b981610193565b92915050565b600080604083850312156101d6576101d5610126565b5b60006101e485828601610174565b92505060206101f5858286016101aa565b9150509250929050565b60008115159050919050565b610214816101ff565b82525050565b600060208201905061022f600083018461020b565b92915050565b600082825260208201905092915050565b7f496e73756666696369656e74204163636f756e742042616c616e636500000000600082015250565b600061027c601c83610235565b915061028782610246565b602082019050919050565b600060208201905081810360008301526102ab8161026f565b9050919050565b600081905092915050565b50565b60006102cd6000836102b2565b91506102d8826102bd565b600082019050919050565b60006102ee826102c0565b915081905091905056fea264697066735822122060a910bf20c11356d778ef45b9016da5d9b070439da26805b754d40a9db0d40f64736f6c634300081c0033a2646970667358221220915a3bf859e9e736b04e6ab984da944fccbd790a5f28c7c7baa2987df0efaab364736f6c634300081c0033",
  "linkReferences": {},
  "deployedLinkReferences": {}
}