{
    "_format": "hh-sol-artifact-1",
    "contractName": "wallet",
    "sourceName": "contracts/wallet_apophis.sol",
    "abi": [
        {
            "inputs": [],
            "stateMutability": "nonpayable",
            "type": "constructor"
        },
        {
            "inputs": [
                {
                    "internalType": "uint256",
                    "name": "",
                    "type": "uint256"
                }
            ],
            "name": "alltransactions",
            "outputs": [
                {
                    "internalType": "address",
                    "name": "from",
                    "type": "address"
                },
                {
                    "internalType": "address",
                    "name": "to",
                    "type": "address"
                },
                {
                    "internalType": "uint256",
                    "name": "amount",
                    "type": "uint256"
                },
                {
                    "internalType": "uint256",
                    "name": "timestamp",
                    "type": "uint256"
                }
            ],
            "stateMutability": "view",
            "type": "function"
        },
        {
            "inputs": [],
            "name": "createWallet",
            "outputs": [],
            "stateMutability": "nonpayable",
            "type": "function"
        },
        {
            "inputs": [
                {
                    "internalType": "address",
                    "name": "user",
                    "type": "address"
                }
            ],
            "name": "disablecooldown",
            "outputs": [],
            "stateMutability": "nonpayable",
            "type": "function"
        },
        {
            "inputs": [
                {
                    "internalType": "address",
                    "name": "user",
                    "type": "address"
                },
                {
                    "internalType": "string",
                    "name": "message",
                    "type": "string"
                }
            ],
            "name": "enablecooldown",
            "outputs": [],
            "stateMutability": "nonpayable",
            "type": "function"
        },
        {
            "inputs": [],
            "name": "getAllTransactions",
            "outputs": [
                {
                    "components": [
                        {
                            "internalType": "address",
                            "name": "from",
                            "type": "address"
                        },
                        {
                            "internalType": "address",
                            "name": "to",
                            "type": "address"
                        },
                        {
                            "internalType": "uint256",
                            "name": "amount",
                            "type": "uint256"
                        },
                        {
                            "internalType": "uint256",
                            "name": "timestamp",
                            "type": "uint256"
                        }
                    ],
                    "internalType": "struct wallet.transaction[]",
                    "name": "",
                    "type": "tuple[]"
                }
            ],
            "stateMutability": "view",
            "type": "function"
        },
        {
            "inputs": [],
            "name": "getRecentTransactions",
            "outputs": [
                {
                    "components": [
                        {
                            "internalType": "address",
                            "name": "from",
                            "type": "address"
                        },
                        {
                            "internalType": "address",
                            "name": "to",
                            "type": "address"
                        },
                        {
                            "internalType": "uint256",
                            "name": "amount",
                            "type": "uint256"
                        },
                        {
                            "internalType": "uint256",
                            "name": "timestamp",
                            "type": "uint256"
                        }
                    ],
                    "internalType": "struct wallet.transaction[]",
                    "name": "",
                    "type": "tuple[]"
                }
            ],
            "stateMutability": "view",
            "type": "function"
        },
        {
            "inputs": [
                {
                    "internalType": "address",
                    "name": "user",
                    "type": "address"
                }
            ],
            "name": "getTransactionHistory",
            "outputs": [
                {
                    "components": [
                        {
                            "internalType": "address",
                            "name": "from",
                            "type": "address"
                        },
                        {
                            "internalType": "address",
                            "name": "to",
                            "type": "address"
                        },
                        {
                            "internalType": "uint256",
                            "name": "amount",
                            "type": "uint256"
                        },
                        {
                            "internalType": "uint256",
                            "name": "timestamp",
                            "type": "uint256"
                        }
                    ],
                    "internalType": "struct wallet.transaction[]",
                    "name": "",
                    "type": "tuple[]"
                }
            ],
            "stateMutability": "view",
            "type": "function"
        },
        {
            "inputs": [
                {
                    "internalType": "address",
                    "name": "recipient",
                    "type": "address"
                },
                {
                    "internalType": "uint256",
                    "name": "amount",
                    "type": "uint256"
                }
            ],
            "name": "logTransaction",
            "outputs": [],
            "stateMutability": "nonpayable",
            "type": "function"
        },
        {
            "inputs": [],
            "name": "owner",
            "outputs": [
                {
                    "internalType": "address",
                    "name": "",
                    "type": "address"
                }
            ],
            "stateMutability": "view",
            "type": "function"
        }
    ],
    "bytecode": "0x6080604052348015600f57600080fd5b50336000806101000a81548173ffffffffffffffffffffffffffffffffffffffff021916908373ffffffffffffffffffffffffffffffffffffffff1602179055506117768061005f6000396000f3fe608060405234801561001057600080fd5b50600436106100935760003560e01c80637af85f17116100665780637af85f17146101115780638da5cb5b1461012d578063be69059b1461014b578063d20cf0e814610167578063f325a3e11461019757610093565b806311ebbf241461009857806327506f53146100a257806353d2147b146100c05780635572e74a146100de575b600080fd5b6100a06101b3565b005b6100aa610266565b6040516100b79190610e5e565b60405180910390f35b6100c8610385565b6040516100d59190610e5e565b60405180910390f35b6100f860048036038101906100f39190610ec0565b610550565b6040516101089493929190610f0b565b60405180910390f35b61012b60048036038101906101269190610f7c565b6105d0565b005b61013561069e565b6040516101429190610fa9565b60405180910390f35b61016560048036038101906101609190610fc4565b6106c2565b005b610181600480360381019061017c9190610f7c565b610ab4565b60405161018e9190610e5e565b60405180910390f35b6101b160048036038101906101ac919061114a565b610c12565b005b60006040518060400160405280600115158152602001604051806101600160405280610136815260200161160b6101369139815250905080600360003373ffffffffffffffffffffffffffffffffffffffff1673ffffffffffffffffffffffffffffffffffffffff16815260200190815260200160002060008201518160000160006101000a81548160ff021916908315150217905550602082015181600101908161025f91906113bd565b5090505050565b60606001805480602002602001604051908101604052809291908181526020016000905b8282101561037c57838290600052602060002090600402016040518060800160405290816000820160009054906101000a900473ffffffffffffffffffffffffffffffffffffffff1673ffffffffffffffffffffffffffffffffffffffff1673ffffffffffffffffffffffffffffffffffffffff1681526020016001820160009054906101000a900473ffffffffffffffffffffffffffffffffffffffff1673ffffffffffffffffffffffffffffffffffffffff1673ffffffffffffffffffffffffffffffffffffffff168152602001600282015481526020016003820154815250508152602001906001019061028a565b50505050905090565b6060600060018054905090506000606482116103a25760006103b0565b6064826103af91906114be565b5b9050600081836103c091906114be565b67ffffffffffffffff8111156103d9576103d861101f565b5b60405190808252806020026020018201604052801561041257816020015b6103ff610cac565b8152602001906001900390816103f75790505b50905060008290505b838110156105465760018181548110610437576104366114f2565b5b90600052602060002090600402016040518060800160405290816000820160009054906101000a900473ffffffffffffffffffffffffffffffffffffffff1673ffffffffffffffffffffffffffffffffffffffff1673ffffffffffffffffffffffffffffffffffffffff1681526020016001820160009054906101000a900473ffffffffffffffffffffffffffffffffffffffff1673ffffffffffffffffffffffffffffffffffffffff1673ffffffffffffffffffffffffffffffffffffffff1681526020016002820154815260200160038201548152505082848361051d91906114be565b8151811061052e5761052d6114f2565b5b6020026020010181905250808060010191505061041b565b5080935050505090565b6001818154811061056057600080fd5b90600052602060002090600402016000915090508060000160009054906101000a900473ffffffffffffffffffffffffffffffffffffffff16908060010160009054906101000a900473ffffffffffffffffffffffffffffffffffffffff16908060020154908060030154905084565b600060405180604001604052806001151581526020016040518060400160405280600181526020017f2d00000000000000000000000000000000000000000000000000000000000000815250815250905080600360008473ffffffffffffffffffffffffffffffffffffffff1673ffffffffffffffffffffffffffffffffffffffff16815260200190815260200160002060008201518160000160006101000a81548160ff021916908315150217905550602082015181600101908161069691906113bd565b509050505050565b60008054906101000a900473ffffffffffffffffffffffffffffffffffffffff1681565b60008111610705576040517f08c379a00000000000000000000000000000000000000000000000000000000081526004016106fc9061157e565b60405180910390fd5b600073ffffffffffffffffffffffffffffffffffffffff168273ffffffffffffffffffffffffffffffffffffffff1603610774576040517f08c379a000000000000000000000000000000000000000000000000000000000815260040161076b906115ea565b60405180910390fd5b600060405180608001604052803373ffffffffffffffffffffffffffffffffffffffff1681526020018473ffffffffffffffffffffffffffffffffffffffff168152602001838152602001428152509050600260003373ffffffffffffffffffffffffffffffffffffffff1673ffffffffffffffffffffffffffffffffffffffff16815260200190815260200160002081908060018154018082558091505060019003906000526020600020906004020160009091909190915060008201518160000160006101000a81548173ffffffffffffffffffffffffffffffffffffffff021916908373ffffffffffffffffffffffffffffffffffffffff16021790555060208201518160010160006101000a81548173ffffffffffffffffffffffffffffffffffffffff021916908373ffffffffffffffffffffffffffffffffffffffff16021790555060408201518160020155606082015181600301555050600260008473ffffffffffffffffffffffffffffffffffffffff1673ffffffffffffffffffffffffffffffffffffffff16815260200190815260200160002081908060018154018082558091505060019003906000526020600020906004020160009091909190915060008201518160000160006101000a81548173ffffffffffffffffffffffffffffffffffffffff021916908373ffffffffffffffffffffffffffffffffffffffff16021790555060208201518160010160006101000a81548173ffffffffffffffffffffffffffffffffffffffff021916908373ffffffffffffffffffffffffffffffffffffffff16021790555060408201518160020155606082015181600301555050600181908060018154018082558091505060019003906000526020600020906004020160009091909190915060008201518160000160006101000a81548173ffffffffffffffffffffffffffffffffffffffff021916908373ffffffffffffffffffffffffffffffffffffffff16021790555060208201518160010160006101000a81548173ffffffffffffffffffffffffffffffffffffffff021916908373ffffffffffffffffffffffffffffffffffffffff16021790555060408201518160020155606082015181600301555050505050565b6060600260008373ffffffffffffffffffffffffffffffffffffffff1673ffffffffffffffffffffffffffffffffffffffff168152602001908152602001600020805480602002602001604051908101604052809291908181526020016000905b82821015610c0757838290600052602060002090600402016040518060800160405290816000820160009054906101000a900473ffffffffffffffffffffffffffffffffffffffff1673ffffffffffffffffffffffffffffffffffffffff1673ffffffffffffffffffffffffffffffffffffffff1681526020016001820160009054906101000a900473ffffffffffffffffffffffffffffffffffffffff1673ffffffffffffffffffffffffffffffffffffffff1673ffffffffffffffffffffffffffffffffffffffff1681526020016002820154815260200160038201548152505081526020019060010190610b15565b505050509050919050565b6000604051806040016040528060011515815260200183815250905080600360008573ffffffffffffffffffffffffffffffffffffffff1673ffffffffffffffffffffffffffffffffffffffff16815260200190815260200160002060008201518160000160006101000a81548160ff0219169083151502179055506020820151816001019081610ca391906113bd565b50905050505050565b6040518060800160405280600073ffffffffffffffffffffffffffffffffffffffff168152602001600073ffffffffffffffffffffffffffffffffffffffff16815260200160008152602001600081525090565b600081519050919050565b600082825260208201905092915050565b6000819050602082019050919050565b600073ffffffffffffffffffffffffffffffffffffffff82169050919050565b6000610d5782610d2c565b9050919050565b610d6781610d4c565b82525050565b6000819050919050565b610d8081610d6d565b82525050565b608082016000820151610d9c6000850182610d5e565b506020820151610daf6020850182610d5e565b506040820151610dc26040850182610d77565b506060820151610dd56060850182610d77565b50505050565b6000610de78383610d86565b60808301905092915050565b6000602082019050919050565b6000610e0b82610d00565b610e158185610d0b565b9350610e2083610d1c565b8060005b83811015610e51578151610e388882610ddb565b9750610e4383610df3565b925050600181019050610e24565b5085935050505092915050565b60006020820190508181036000830152610e788184610e00565b905092915050565b6000604051905090565b600080fd5b600080fd5b610e9d81610d6d565b8114610ea857600080fd5b50565b600081359050610eba81610e94565b92915050565b600060208284031215610ed657610ed5610e8a565b5b6000610ee484828501610eab565b91505092915050565b610ef681610d4c565b82525050565b610f0581610d6d565b82525050565b6000608082019050610f206000830187610eed565b610f2d6020830186610eed565b610f3a6040830185610efc565b610f476060830184610efc565b95945050505050565b610f5981610d4c565b8114610f6457600080fd5b50565b600081359050610f7681610f50565b92915050565b600060208284031215610f9257610f91610e8a565b5b6000610fa084828501610f67565b91505092915050565b6000602082019050610fbe6000830184610eed565b92915050565b60008060408385031215610fdb57610fda610e8a565b5b6000610fe985828601610f67565b9250506020610ffa85828601610eab565b9150509250929050565b600080fd5b600080fd5b6000601f19601f8301169050919050565b7f4e487b7100000000000000000000000000000000000000000000000000000000600052604160045260246000fd5b6110578261100e565b810181811067ffffffffffffffff821117156110765761107561101f565b5b80604052505050565b6000611089610e80565b9050611095828261104e565b919050565b600067ffffffffffffffff8211156110b5576110b461101f565b5b6110be8261100e565b9050602081019050919050565b82818337600083830152505050565b60006110ed6110e88461109a565b61107f565b90508281526020810184848401111561110957611108611009565b5b6111148482856110cb565b509392505050565b600082601f83011261113157611130611004565b5b81356111418482602086016110da565b91505092915050565b6000806040838503121561116157611160610e8a565b5b600061116f85828601610f67565b925050602083013567ffffffffffffffff8111156111905761118f610e8f565b5b61119c8582860161111c565b9150509250929050565b600081519050919050565b7f4e487b7100000000000000000000000000000000000000000000000000000000600052602260045260246000fd5b600060028204905060018216806111f857607f821691505b60208210810361120b5761120a6111b1565b5b50919050565b60008190508160005260206000209050919050565b60006020601f8301049050919050565b600082821b905092915050565b6000600883026112737fffffffffffffffffffffffffffffffffffffffffffffffffffffffffffffffff82611236565b61127d8683611236565b95508019841693508086168417925050509392505050565b6000819050919050565b60006112ba6112b56112b084610d6d565b611295565b610d6d565b9050919050565b6000819050919050565b6112d48361129f565b6112e86112e0826112c1565b848454611243565b825550505050565b600090565b6112fd6112f0565b6113088184846112cb565b505050565b5b8181101561132c576113216000826112f5565b60018101905061130e565b5050565b601f8211156113715761134281611211565b61134b84611226565b8101602085101561135a578190505b61136e61136685611226565b83018261130d565b50505b505050565b600082821c905092915050565b600061139460001984600802611376565b1980831691505092915050565b60006113ad8383611383565b9150826002028217905092915050565b6113c6826111a6565b67ffffffffffffffff8111156113df576113de61101f565b5b6113e982546111e0565b6113f4828285611330565b600060209050601f8311600181146114275760008415611415578287015190505b61141f85826113a1565b865550611487565b601f19841661143586611211565b60005b8281101561145d57848901518255600182019150602085019450602081019050611438565b8683101561147a5784890151611476601f891682611383565b8355505b6001600288020188555050505b505050505050565b7f4e487b7100000000000000000000000000000000000000000000000000000000600052601160045260246000fd5b60006114c982610d6d565b91506114d483610d6d565b92508282039050818111156114ec576114eb61148f565b5b92915050565b7f4e487b7100000000000000000000000000000000000000000000000000000000600052603260045260246000fd5b600082825260208201905092915050565b7f4d7573742073656e6420736f6d65204574686572000000000000000000000000600082015250565b6000611568601483611521565b915061157382611532565b602082019050919050565b600060208201905081810360008301526115978161155b565b9050919050565b7f496e76616c696420726563697069656e74206164647265737300000000000000600082015250565b60006115d4601983611521565b91506115df8261159e565b602082019050919050565b60006020820190508181036000830152611603816115c7565b905091905056fe506c65617365206e6f7465207468617420796f7572206163636f756e742069732063757272656e746c7920756e646572204b594320284b6e6f7720596f757220437573746f6d657229207265766965772e20466f7220736563757269747920726561736f6e732c20796f752077696c6c206e6f742062652061626c6520746f20706572666f726d20616e79207472616e73616374696f6e7320756e74696c2074686520766572696669636174696f6e2070726f63657373206973207375636365737366756c6c7920636f6d706c657465642e205765206170707265636961746520796f757220756e6465727374616e64696e6720616e6420636f6f7065726174696f6e20696e206d61696e7461696e696e6720612073656375726520656e7669726f6e6d656e7420666f7220616c6c2075736572732ea264697066735822122042bf9e87467a0c916287c72b3efae3136a6e1757ba9f0c22dfde02cac6ea306764736f6c634300081b0033",
    "linkReferences": {},
    "deployedLinkReferences": {}
}