{
  "_format": "hh-sol-artifact-1",
  "contractName": "Registery",
  "sourceName": "contracts/Register.sol",
  "abi": [
    {
      "anonymous": false,
      "inputs": [
        {
          "indexed": false,
          "internalType": "string",
          "name": "user",
          "type": "string"
        },
        {
          "indexed": false,
          "internalType": "string",
          "name": "fastagID",
          "type": "string"
        }
      ],
      "name": "FastagAdded",
      "type": "event"
    },
    {
      "anonymous": false,
      "inputs": [
        {
          "indexed": false,
          "internalType": "string",
          "name": "fromUser",
          "type": "string"
        },
        {
          "indexed": false,
          "internalType": "string",
          "name": "toll",
          "type": "string"
        }
      ],
      "name": "TollAuthFail",
      "type": "event"
    },
    {
      "anonymous": false,
      "inputs": [
        {
          "indexed": false,
          "internalType": "string",
          "name": "from",
          "type": "string"
        },
        {
          "indexed": false,
          "internalType": "uint256",
          "name": "amount",
          "type": "uint256"
        },
        {
          "indexed": false,
          "internalType": "uint256",
          "name": "timestamp",
          "type": "uint256"
        },
        {
          "indexed": false,
          "internalType": "string",
          "name": "toll",
          "type": "string"
        },
        {
          "indexed": false,
          "internalType": "string",
          "name": "carNo",
          "type": "string"
        }
      ],
      "name": "TransactionLogged",
      "type": "event"
    },
    {
      "anonymous": false,
      "inputs": [
        {
          "indexed": false,
          "internalType": "string",
          "name": "user",
          "type": "string"
        }
      ],
      "name": "UserAdded",
      "type": "event"
    },
    {
      "anonymous": false,
      "inputs": [
        {
          "indexed": true,
          "internalType": "address",
          "name": "wallet",
          "type": "address"
        },
        {
          "indexed": false,
          "internalType": "string",
          "name": "proofHash",
          "type": "string"
        }
      ],
      "name": "WalletCreated",
      "type": "event"
    },
    {
      "inputs": [
        {
          "internalType": "string",
          "name": "userProofHash",
          "type": "string"
        },
        {
          "internalType": "string",
          "name": "rcNumber",
          "type": "string"
        },
        {
          "internalType": "string",
          "name": "chasisNumber",
          "type": "string"
        },
        {
          "internalType": "string",
          "name": "model",
          "type": "string"
        },
        {
          "internalType": "string",
          "name": "carNum",
          "type": "string"
        },
        {
          "internalType": "address",
          "name": "parentWallet",
          "type": "address"
        }
      ],
      "name": "addFastag",
      "outputs": [],
      "stateMutability": "nonpayable",
      "type": "function"
    },
    {
      "inputs": [
        {
          "internalType": "string",
          "name": "proofHash",
          "type": "string"
        },
        {
          "internalType": "string",
          "name": "gender",
          "type": "string"
        }
      ],
      "name": "addUser",
      "outputs": [],
      "stateMutability": "nonpayable",
      "type": "function"
    },
    {
      "inputs": [
        {
          "internalType": "string",
          "name": "proofHash",
          "type": "string"
        }
      ],
      "name": "createWallet",
      "outputs": [
        {
          "internalType": "address",
          "name": "",
          "type": "address"
        }
      ],
      "stateMutability": "nonpayable",
      "type": "function"
    },
    {
      "inputs": [
        {
          "internalType": "string",
          "name": "proofHash",
          "type": "string"
        }
      ],
      "name": "getTransactions",
      "outputs": [
        {
          "internalType": "string[]",
          "name": "",
          "type": "string[]"
        },
        {
          "internalType": "uint256[]",
          "name": "",
          "type": "uint256[]"
        },
        {
          "internalType": "uint256[]",
          "name": "",
          "type": "uint256[]"
        },
        {
          "internalType": "string[]",
          "name": "",
          "type": "string[]"
        }
      ],
      "stateMutability": "view",
      "type": "function"
    },
    {
      "inputs": [
        {
          "internalType": "string",
          "name": "proofHash",
          "type": "string"
        }
      ],
      "name": "getUser",
      "outputs": [
        {
          "components": [
            {
              "internalType": "string",
              "name": "proofHash",
              "type": "string"
            },
            {
              "internalType": "string",
              "name": "gender",
              "type": "string"
            },
            {
              "internalType": "string[]",
              "name": "fastags",
              "type": "string[]"
            },
            {
              "internalType": "address",
              "name": "wallet",
              "type": "address"
            },
            {
              "components": [
                {
                  "internalType": "string",
                  "name": "fromUser",
                  "type": "string"
                },
                {
                  "internalType": "uint256",
                  "name": "amount",
                  "type": "uint256"
                },
                {
                  "internalType": "uint256",
                  "name": "timestamp",
                  "type": "uint256"
                },
                {
                  "internalType": "string",
                  "name": "toll",
                  "type": "string"
                },
                {
                  "internalType": "string",
                  "name": "carNo",
                  "type": "string"
                }
              ],
              "internalType": "struct Transaction[]",
              "name": "transactions",
              "type": "tuple[]"
            }
          ],
          "internalType": "struct Users",
          "name": "",
          "type": "tuple"
        }
      ],
      "stateMutability": "view",
      "type": "function"
    },
    {
      "inputs": [
        {
          "internalType": "string",
          "name": "proofHash",
          "type": "string"
        }
      ],
      "name": "getUserFastags",
      "outputs": [
        {
          "components": [
            {
              "internalType": "string",
              "name": "user",
              "type": "string"
            },
            {
              "internalType": "string",
              "name": "rcNumber",
              "type": "string"
            },
            {
              "internalType": "string",
              "name": "chasisNumber",
              "type": "string"
            },
            {
              "internalType": "string",
              "name": "model",
              "type": "string"
            },
            {
              "internalType": "string",
              "name": "carNum",
              "type": "string"
            },
            {
              "internalType": "address",
              "name": "parentWallet",
              "type": "address"
            }
          ],
          "internalType": "struct Fastag[]",
          "name": "",
          "type": "tuple[]"
        }
      ],
      "stateMutability": "view",
      "type": "function"
    },
    {
      "inputs": [
        {
          "internalType": "string",
          "name": "proofHash",
          "type": "string"
        }
      ],
      "name": "getWalletBalance",
      "outputs": [
        {
          "internalType": "uint256",
          "name": "",
          "type": "uint256"
        }
      ],
      "stateMutability": "view",
      "type": "function"
    },
    {
      "inputs": [
        {
          "internalType": "string",
          "name": "fastag",
          "type": "string"
        },
        {
          "internalType": "uint256",
          "name": "amount",
          "type": "uint256"
        },
        {
          "internalType": "string",
          "name": "toll",
          "type": "string"
        }
      ],
      "name": "logTransaction",
      "outputs": [],
      "stateMutability": "nonpayable",
      "type": "function"
    },
    {
      "inputs": [
        {
          "internalType": "string",
          "name": "fastag",
          "type": "string"
        },
        {
          "internalType": "uint256",
          "name": "amount",
          "type": "uint256"
        },
        {
          "internalType": "string",
          "name": "toll",
          "type": "string"
        }
      ],
      "name": "makePayment",
      "outputs": [],
      "stateMutability": "nonpayable",
      "type": "function"
    }
  ],
  "bytecode": "0x6080604052348015600f57600080fd5b50612f8c8061001f6000396000f3fe608060405234801561001057600080fd5b50600436106100935760003560e01c806353b676e71161006657806353b676e71461014457806370894ee6146101775780637404f1d21461019357806390e1e722146101c3578063fede1294146101df57610093565b8063079eaf3414610098578063263c82e1146100b45780632cd09a4d146100e457806331feb67114610114575b600080fd5b6100b260048036038101906100ad9190611a9c565b6101fb565b005b6100ce60048036038101906100c99190611b14565b6102cd565b6040516100db9190611b76565b60405180910390f35b6100fe60048036038101906100f99190611b14565b610334565b60405161010b9190611db8565b60405180910390f35b61012e60048036038101906101299190611b14565b6107fb565b60405161013b919061207c565b60405180910390f35b61015e60048036038101906101599190611b14565b610d1e565b60405161016e94939291906121d3565b60405180910390f35b610191600480360381019061018c9190612260565b61109e565b005b6101ad60048036038101906101a89190611b14565b611352565b6040516101ba91906122fa565b60405180910390f35b6101dd60048036038101906101d89190612260565b6113e0565b005b6101f960048036038101906101f49190612341565b6116f0565b005b600061020683611352565b9050600080846040516102199190612496565b908152602001604051809103902090508381600001908161023a91906126b9565b508281600101908161024c91906126b9565b50818160030160006101000a81548173ffffffffffffffffffffffffffffffffffffffff021916908373ffffffffffffffffffffffffffffffffffffffff1602179055507fdb8f9fd4bfba5ae615ae02e8b4d281b887225fd3d34a5ac7b8d78df768bb63e7846040516102bf91906127d5565b60405180910390a150505050565b6000806000836040516102e09190612496565b908152602001604051809103902060030160009054906101000a900473ffffffffffffffffffffffffffffffffffffffff1690508073ffffffffffffffffffffffffffffffffffffffff1631915050919050565b6060600080836040516103479190612496565b90815260200160405180910390206000018054610363906124dc565b9050116103a5576040517f08c379a000000000000000000000000000000000000000000000000000000000815260040161039c90612843565b60405180910390fd5b600080836040516103b69190612496565b908152602001604051809103902060020180549050905060008167ffffffffffffffff8111156103e9576103e8611971565b5b60405190808252806020026020018201604052801561042257816020015b61040f6118a4565b8152602001906001900390816104075790505b50905060005b828110156107f05760016000866040516104429190612496565b9081526020016040518091039020600201828154811061046557610464612863565b5b9060005260206000200160405161047c9190612915565b90815260200160405180910390206040518060c00160405290816000820180546104a5906124dc565b80601f01602080910402602001604051908101604052809291908181526020018280546104d1906124dc565b801561051e5780601f106104f35761010080835404028352916020019161051e565b820191906000526020600020905b81548152906001019060200180831161050157829003601f168201915b50505050508152602001600182018054610537906124dc565b80601f0160208091040260200160405190810160405280929190818152602001828054610563906124dc565b80156105b05780601f10610585576101008083540402835291602001916105b0565b820191906000526020600020905b81548152906001019060200180831161059357829003601f168201915b505050505081526020016002820180546105c9906124dc565b80601f01602080910402602001604051908101604052809291908181526020018280546105f5906124dc565b80156106425780601f1061061757610100808354040283529160200191610642565b820191906000526020600020905b81548152906001019060200180831161062557829003601f168201915b5050505050815260200160038201805461065b906124dc565b80601f0160208091040260200160405190810160405280929190818152602001828054610687906124dc565b80156106d45780601f106106a9576101008083540402835291602001916106d4565b820191906000526020600020905b8154815290600101906020018083116106b757829003601f168201915b505050505081526020016004820180546106ed906124dc565b80601f0160208091040260200160405190810160405280929190818152602001828054610719906124dc565b80156107665780601f1061073b57610100808354040283529160200191610766565b820191906000526020600020905b81548152906001019060200180831161074957829003601f168201915b505050505081526020016005820160009054906101000a900473ffffffffffffffffffffffffffffffffffffffff1673ffffffffffffffffffffffffffffffffffffffff1673ffffffffffffffffffffffffffffffffffffffff16815250508282815181106107d8576107d7612863565b5b60200260200101819052508080600101915050610428565b508092505050919050565b6108036118f0565b600080836040516108149190612496565b90815260200160405180910390206000018054610830906124dc565b905011610872576040517f08c379a000000000000000000000000000000000000000000000000000000000815260040161086990612843565b60405180910390fd5b6000826040516108829190612496565b90815260200160405180910390206040518060a00160405290816000820180546108ab906124dc565b80601f01602080910402602001604051908101604052809291908181526020018280546108d7906124dc565b80156109245780601f106108f957610100808354040283529160200191610924565b820191906000526020600020905b81548152906001019060200180831161090757829003601f168201915b5050505050815260200160018201805461093d906124dc565b80601f0160208091040260200160405190810160405280929190818152602001828054610969906124dc565b80156109b65780601f1061098b576101008083540402835291602001916109b6565b820191906000526020600020905b81548152906001019060200180831161099957829003601f168201915b5050505050815260200160028201805480602002602001604051908101604052809291908181526020016000905b82821015610a90578382906000526020600020018054610a03906124dc565b80601f0160208091040260200160405190810160405280929190818152602001828054610a2f906124dc565b8015610a7c5780601f10610a5157610100808354040283529160200191610a7c565b820191906000526020600020905b815481529060010190602001808311610a5f57829003601f168201915b5050505050815260200190600101906109e4565b5050505081526020016003820160009054906101000a900473ffffffffffffffffffffffffffffffffffffffff1673ffffffffffffffffffffffffffffffffffffffff1673ffffffffffffffffffffffffffffffffffffffff16815260200160048201805480602002602001604051908101604052809291908181526020016000905b82821015610d0f57838290600052602060002090600502016040518060a0016040529081600082018054610b46906124dc565b80601f0160208091040260200160405190810160405280929190818152602001828054610b72906124dc565b8015610bbf5780601f10610b9457610100808354040283529160200191610bbf565b820191906000526020600020905b815481529060010190602001808311610ba257829003601f168201915b505050505081526020016001820154815260200160028201548152602001600382018054610bec906124dc565b80601f0160208091040260200160405190810160405280929190818152602001828054610c18906124dc565b8015610c655780601f10610c3a57610100808354040283529160200191610c65565b820191906000526020600020905b815481529060010190602001808311610c4857829003601f168201915b50505050508152602001600482018054610c7e906124dc565b80601f0160208091040260200160405190810160405280929190818152602001828054610caa906124dc565b8015610cf75780601f10610ccc57610100808354040283529160200191610cf7565b820191906000526020600020905b815481529060010190602001808311610cda57829003601f168201915b50505050508152505081526020019060010190610b13565b50505050815250509050919050565b60608060608060008086604051610d359190612496565b908152602001604051809103902060040180549050905060008167ffffffffffffffff811115610d6857610d67611971565b5b604051908082528060200260200182016040528015610d9b57816020015b6060815260200190600190039081610d865790505b50905060008267ffffffffffffffff811115610dba57610db9611971565b5b604051908082528060200260200182016040528015610de85781602001602082028036833780820191505090505b50905060008367ffffffffffffffff811115610e0757610e06611971565b5b604051908082528060200260200182016040528015610e355781602001602082028036833780820191505090505b50905060008467ffffffffffffffff811115610e5457610e53611971565b5b604051908082528060200260200182016040528015610e8757816020015b6060815260200190600190039081610e725790505b50905060005b85811015611085576000808c604051610ea69190612496565b90815260200160405180910390206004018281548110610ec957610ec8612863565b5b90600052602060002090600502019050806000018054610ee8906124dc565b80601f0160208091040260200160405190810160405280929190818152602001828054610f14906124dc565b8015610f615780601f10610f3657610100808354040283529160200191610f61565b820191906000526020600020905b815481529060010190602001808311610f4457829003601f168201915b5050505050868381518110610f7957610f78612863565b5b60200260200101819052508060010154858381518110610f9c57610f9b612863565b5b6020026020010181815250508060020154848381518110610fc057610fbf612863565b5b602002602001018181525050806003018054610fdb906124dc565b80601f0160208091040260200160405190810160405280929190818152602001828054611007906124dc565b80156110545780601f1061102957610100808354040283529160200191611054565b820191906000526020600020905b81548152906001019060200180831161103757829003601f168201915b505050505083838151811061106c5761106b612863565b5b6020026020010181905250508080600101915050610e8d565b5083838383985098509850985050505050509193509193565b600082116110e1576040517f08c379a00000000000000000000000000000000000000000000000000000000081526004016110d890612978565b60405180910390fd5b60006001846040516110f39190612496565b9081526020016040518091039020600001805461110f906124dc565b80601f016020809104026020016040519081016040528092919081815260200182805461113b906124dc565b80156111885780601f1061115d57610100808354040283529160200191611188565b820191906000526020600020905b81548152906001019060200180831161116b57829003601f168201915b5050505050905060006001856040516111a19190612496565b908152602001604051809103902060040180546111bd906124dc565b80601f01602080910402602001604051908101604052809291908181526020018280546111e9906124dc565b80156112365780601f1061120b57610100808354040283529160200191611236565b820191906000526020600020905b81548152906001019060200180831161121957829003601f168201915b5050505050905060006040518060a001604052808481526020018681526020014281526020018581526020018381525090506000836040516112789190612496565b908152602001604051809103902060040181908060018154018082558091505060019003906000526020600020906005020160009091909190915060008201518160000190816112c891906126b9565b50602082015181600101556040820151816002015560608201518160030190816112f291906126b9565b50608082015181600401908161130891906126b9565b5050507f180a48a50ea03e9ab9b29f08a3455270c24dd92316b06bd9d7181502048ea1178386428786604051611342959493929190612998565b60405180910390a1505050505050565b6000806040518060200161136590611935565b6020820181038252601f19601f82011660405250905060008151602083016000f090508073ffffffffffffffffffffffffffffffffffffffff167f03768bb3a703b01cc4c51e2f46596839eef3bdfc4d1dc810c789e342d2f405a7856040516113ce91906127d5565b60405180910390a28092505050919050565b60008211611423576040517f08c379a000000000000000000000000000000000000000000000000000000000815260040161141a90612978565b60405180910390fd5b60006001846040516114359190612496565b908152602001604051809103902060050160009054906101000a900473ffffffffffffffffffffffffffffffffffffffff169050600060018560405161147b9190612496565b90815260200160405180910390206000018054611497906124dc565b80601f01602080910402602001604051908101604052809291908181526020018280546114c3906124dc565b80156115105780601f106114e557610100808354040283529160200191611510565b820191906000526020600020905b8154815290600101906020018083116114f357829003601f168201915b50505050509050600073ffffffffffffffffffffffffffffffffffffffff168273ffffffffffffffffffffffffffffffffffffffff1603611586576040517f08c379a000000000000000000000000000000000000000000000000000000000815260040161157d90612a4c565b60405180910390fd5b600015611601577f9308143bffef255eabbc4c0ae9582149d26f0fbbf7a40157bc6ad374f174bd8881846040516115be929190612a6c565b60405180910390a16040517f08c379a00000000000000000000000000000000000000000000000000000000081526004016115f890612aef565b60405180910390fd5b60007370997970c51812dc3a010c7d01b50e0d17dc79c8905060008373ffffffffffffffffffffffffffffffffffffffff16633b89bb8683886040518363ffffffff1660e01b8152600401611657929190612b0f565b6020604051808303816000875af1158015611676573d6000803e3d6000fd5b505050506040513d601f19601f8201168201806040525081019061169a9190612b70565b9050806116dc576040517f08c379a00000000000000000000000000000000000000000000000000000000081526004016116d390612be9565b60405180910390fd5b6116e787878761109e565b50505050505050565b60006040518060c001604052808881526020018781526020018681526020018581526020018481526020018373ffffffffffffffffffffffffffffffffffffffff1681525090506000876040516117479190612496565b90815260200160405180910390206002018590806001815401808255809150506001900390600052602060002001600090919091909150908161178a91906126b9565b508060018660405161179c9190612496565b908152602001604051809103902060008201518160000190816117bf91906126b9565b5060208201518160010190816117d591906126b9565b5060408201518160020190816117eb91906126b9565b50606082015181600301908161180191906126b9565b50608082015181600401908161181791906126b9565b5060a08201518160050160006101000a81548173ffffffffffffffffffffffffffffffffffffffff021916908373ffffffffffffffffffffffffffffffffffffffff1602179055509050507f19122baf3b2f5e4a6cc571fe386aa2ff5bc7c71f4d23d1c8e603409af42a20f58786604051611893929190612a6c565b60405180910390a150505050505050565b6040518060c001604052806060815260200160608152602001606081526020016060815260200160608152602001600073ffffffffffffffffffffffffffffffffffffffff1681525090565b6040518060a00160405280606081526020016060815260200160608152602001600073ffffffffffffffffffffffffffffffffffffffff168152602001606081525090565b61034d80612c0a83390190565b6000604051905090565b600080fd5b600080fd5b600080fd5b600080fd5b6000601f19601f8301169050919050565b7f4e487b7100000000000000000000000000000000000000000000000000000000600052604160045260246000fd5b6119a982611960565b810181811067ffffffffffffffff821117156119c8576119c7611971565b5b80604052505050565b60006119db611942565b90506119e782826119a0565b919050565b600067ffffffffffffffff821115611a0757611a06611971565b5b611a1082611960565b9050602081019050919050565b82818337600083830152505050565b6000611a3f611a3a846119ec565b6119d1565b905082815260208101848484011115611a5b57611a5a61195b565b5b611a66848285611a1d565b509392505050565b600082601f830112611a8357611a82611956565b5b8135611a93848260208601611a2c565b91505092915050565b60008060408385031215611ab357611ab261194c565b5b600083013567ffffffffffffffff811115611ad157611ad0611951565b5b611add85828601611a6e565b925050602083013567ffffffffffffffff811115611afe57611afd611951565b5b611b0a85828601611a6e565b9150509250929050565b600060208284031215611b2a57611b2961194c565b5b600082013567ffffffffffffffff811115611b4857611b47611951565b5b611b5484828501611a6e565b91505092915050565b6000819050919050565b611b7081611b5d565b82525050565b6000602082019050611b8b6000830184611b67565b92915050565b600081519050919050565b600082825260208201905092915050565b6000819050602082019050919050565b600081519050919050565b600082825260208201905092915050565b60005b83811015611bf7578082015181840152602081019050611bdc565b60008484015250505050565b6000611c0e82611bbd565b611c188185611bc8565b9350611c28818560208601611bd9565b611c3181611960565b840191505092915050565b600073ffffffffffffffffffffffffffffffffffffffff82169050919050565b6000611c6782611c3c565b9050919050565b611c7781611c5c565b82525050565b600060c0830160008301518482036000860152611c9a8282611c03565b91505060208301518482036020860152611cb48282611c03565b91505060408301518482036040860152611cce8282611c03565b91505060608301518482036060860152611ce88282611c03565b91505060808301518482036080860152611d028282611c03565b91505060a0830151611d1760a0860182611c6e565b508091505092915050565b6000611d2e8383611c7d565b905092915050565b6000602082019050919050565b6000611d4e82611b91565b611d588185611b9c565b935083602082028501611d6a85611bad565b8060005b85811015611da65784840389528151611d878582611d22565b9450611d9283611d36565b925060208a01995050600181019050611d6e565b50829750879550505050505092915050565b60006020820190508181036000830152611dd28184611d43565b905092915050565b600081519050919050565b600082825260208201905092915050565b6000819050602082019050919050565b6000611e128383611c03565b905092915050565b6000602082019050919050565b6000611e3282611dda565b611e3c8185611de5565b935083602082028501611e4e85611df6565b8060005b85811015611e8a5784840389528151611e6b8582611e06565b9450611e7683611e1a565b925060208a01995050600181019050611e52565b50829750879550505050505092915050565b600081519050919050565b600082825260208201905092915050565b6000819050602082019050919050565b611ed181611b5d565b82525050565b600060a0830160008301518482036000860152611ef48282611c03565b9150506020830151611f096020860182611ec8565b506040830151611f1c6040860182611ec8565b5060608301518482036060860152611f348282611c03565b91505060808301518482036080860152611f4e8282611c03565b9150508091505092915050565b6000611f678383611ed7565b905092915050565b6000602082019050919050565b6000611f8782611e9c565b611f918185611ea7565b935083602082028501611fa385611eb8565b8060005b85811015611fdf5784840389528151611fc08582611f5b565b9450611fcb83611f6f565b925060208a01995050600181019050611fa7565b50829750879550505050505092915050565b600060a083016000830151848203600086015261200e8282611c03565b915050602083015184820360208601526120288282611c03565b915050604083015184820360408601526120428282611e27565b91505060608301516120576060860182611c6e565b506080830151848203608086015261206f8282611f7c565b9150508091505092915050565b600060208201905081810360008301526120968184611ff1565b905092915050565b600082825260208201905092915050565b60006120ba82611dda565b6120c4818561209e565b9350836020820285016120d685611df6565b8060005b8581101561211257848403895281516120f38582611e06565b94506120fe83611e1a565b925060208a019950506001810190506120da565b50829750879550505050505092915050565b600081519050919050565b600082825260208201905092915050565b6000819050602082019050919050565b600061215c8383611ec8565b60208301905092915050565b6000602082019050919050565b600061218082612124565b61218a818561212f565b935061219583612140565b8060005b838110156121c65781516121ad8882612150565b97506121b883612168565b925050600181019050612199565b5085935050505092915050565b600060808201905081810360008301526121ed81876120af565b905081810360208301526122018186612175565b905081810360408301526122158185612175565b9050818103606083015261222981846120af565b905095945050505050565b61223d81611b5d565b811461224857600080fd5b50565b60008135905061225a81612234565b92915050565b6000806000606084860312156122795761227861194c565b5b600084013567ffffffffffffffff81111561229757612296611951565b5b6122a386828701611a6e565b93505060206122b48682870161224b565b925050604084013567ffffffffffffffff8111156122d5576122d4611951565b5b6122e186828701611a6e565b9150509250925092565b6122f481611c5c565b82525050565b600060208201905061230f60008301846122eb565b92915050565b61231e81611c5c565b811461232957600080fd5b50565b60008135905061233b81612315565b92915050565b60008060008060008060c0878903121561235e5761235d61194c565b5b600087013567ffffffffffffffff81111561237c5761237b611951565b5b61238889828a01611a6e565b965050602087013567ffffffffffffffff8111156123a9576123a8611951565b5b6123b589828a01611a6e565b955050604087013567ffffffffffffffff8111156123d6576123d5611951565b5b6123e289828a01611a6e565b945050606087013567ffffffffffffffff81111561240357612402611951565b5b61240f89828a01611a6e565b935050608087013567ffffffffffffffff8111156124305761242f611951565b5b61243c89828a01611a6e565b92505060a061244d89828a0161232c565b9150509295509295509295565b600081905092915050565b600061247082611bbd565b61247a818561245a565b935061248a818560208601611bd9565b80840191505092915050565b60006124a28284612465565b915081905092915050565b7f4e487b7100000000000000000000000000000000000000000000000000000000600052602260045260246000fd5b600060028204905060018216806124f457607f821691505b602082108103612507576125066124ad565b5b50919050565b60008190508160005260206000209050919050565b60006020601f8301049050919050565b600082821b905092915050565b60006008830261256f7fffffffffffffffffffffffffffffffffffffffffffffffffffffffffffffffff82612532565b6125798683612532565b95508019841693508086168417925050509392505050565b6000819050919050565b60006125b66125b16125ac84611b5d565b612591565b611b5d565b9050919050565b6000819050919050565b6125d08361259b565b6125e46125dc826125bd565b84845461253f565b825550505050565b600090565b6125f96125ec565b6126048184846125c7565b505050565b5b818110156126285761261d6000826125f1565b60018101905061260a565b5050565b601f82111561266d5761263e8161250d565b61264784612522565b81016020851015612656578190505b61266a61266285612522565b830182612609565b50505b505050565b600082821c905092915050565b600061269060001984600802612672565b1980831691505092915050565b60006126a9838361267f565b9150826002028217905092915050565b6126c282611bbd565b67ffffffffffffffff8111156126db576126da611971565b5b6126e582546124dc565b6126f082828561262c565b600060209050601f8311600181146127235760008415612711578287015190505b61271b858261269d565b865550612783565b601f1984166127318661250d565b60005b8281101561275957848901518255600182019150602085019450602081019050612734565b868310156127765784890151612772601f89168261267f565b8355505b6001600288020188555050505b505050505050565b600082825260208201905092915050565b60006127a782611bbd565b6127b1818561278b565b93506127c1818560208601611bd9565b6127ca81611960565b840191505092915050565b600060208201905081810360008301526127ef818461279c565b905092915050565b7f496e76616c696420686173682076616c75652100000000000000000000000000600082015250565b600061282d60138361278b565b9150612838826127f7565b602082019050919050565b6000602082019050818103600083015261285c81612820565b9050919050565b7f4e487b7100000000000000000000000000000000000000000000000000000000600052603260045260246000fd5b6000815461289f816124dc565b6128a9818661245a565b945060018216600081146128c457600181146128d95761290c565b60ff198316865281151582028601935061290c565b6128e28561250d565b60005b83811015612904578154818901526001820191506020810190506128e5565b838801955050505b50505092915050565b60006129218284612892565b915081905092915050565b7f496e76616c696420616d6f756e74000000000000000000000000000000000000600082015250565b6000612962600e8361278b565b915061296d8261292c565b602082019050919050565b6000602082019050818103600083015261299181612955565b9050919050565b600060a08201905081810360008301526129b2818861279c565b90506129c16020830187611b67565b6129ce6040830186611b67565b81810360608301526129e0818561279c565b905081810360808301526129f4818461279c565b90509695505050505050565b7f496e76616c69642057616c6c6574000000000000000000000000000000000000600082015250565b6000612a36600e8361278b565b9150612a4182612a00565b602082019050919050565b60006020820190508181036000830152612a6581612a29565b9050919050565b60006040820190508181036000830152612a86818561279c565b90508181036020830152612a9a818461279c565b90509392505050565b7f41757468204661696c0000000000000000000000000000000000000000000000600082015250565b6000612ad960098361278b565b9150612ae482612aa3565b602082019050919050565b60006020820190508181036000830152612b0881612acc565b9050919050565b6000604082019050612b2460008301856122eb565b612b316020830184611b67565b9392505050565b60008115159050919050565b612b4d81612b38565b8114612b5857600080fd5b50565b600081519050612b6a81612b44565b92915050565b600060208284031215612b8657612b8561194c565b5b6000612b9484828501612b5b565b91505092915050565b7f5061796d656e74204661696c6564210000000000000000000000000000000000600082015250565b6000612bd3600f8361278b565b9150612bde82612b9d565b602082019050919050565b60006020820190508181036000830152612c0281612bc6565b905091905056fe6080604052348015600f57600080fd5b5061032e8061001f6000396000f3fe6080604052600436106100225760003560e01c80633b89bb861461002e57610029565b3661002957005b600080fd5b34801561003a57600080fd5b50610055600480360381019061005091906101bf565b61006b565b604051610062919061021a565b60405180910390f35b6000814710156100b0576040517f08c379a00000000000000000000000000000000000000000000000000000000081526004016100a790610292565b60405180910390fd5b60008373ffffffffffffffffffffffffffffffffffffffff16836040516100d6906102e3565b60006040518083038185875af1925050503d8060008114610113576040519150601f19603f3d011682016040523d82523d6000602084013e610118565b606091505b505090508091505092915050565b600080fd5b600073ffffffffffffffffffffffffffffffffffffffff82169050919050565b60006101568261012b565b9050919050565b6101668161014b565b811461017157600080fd5b50565b6000813590506101838161015d565b92915050565b6000819050919050565b61019c81610189565b81146101a757600080fd5b50565b6000813590506101b981610193565b92915050565b600080604083850312156101d6576101d5610126565b5b60006101e485828601610174565b92505060206101f5858286016101aa565b9150509250929050565b60008115159050919050565b610214816101ff565b82525050565b600060208201905061022f600083018461020b565b92915050565b600082825260208201905092915050565b7f496e73756666696369656e74204163636f756e742042616c616e636500000000600082015250565b600061027c601c83610235565b915061028782610246565b602082019050919050565b600060208201905081810360008301526102ab8161026f565b9050919050565b600081905092915050565b50565b60006102cd6000836102b2565b91506102d8826102bd565b600082019050919050565b60006102ee826102c0565b915081905091905056fea26469706673582212205203a4d4ceb79e5242e565d9a908051ae6ed23b2d8fe7cc185bf25b86125514464736f6c634300081c0033a264697066735822122018cd7c3aecad8a9e7e21ea1e103d07e746f641b8b787e8751eb9dff0c323a77f64736f6c634300081c0033",
  "linkReferences": {},
  "deployedLinkReferences": {}
}